:100000000C946F030C948C030C948C030C948C0351
:100010000C948C030C948C030C948C030C948C0324
:100020000C948C030C948C030C94EC270C94C42833
:100030000C946B110C948C030C948C030C948C0317
:100040000C948C030C948C030C948C030C948C03F4
:100050000C948C030C94C8270C948C030C948C0384
:100060000C948C030C948C030C948C030C948C03D4
:100070000C948C030C948C030C948C030C948C03C4
:100080000C948C030C948C030C948C030C948C03B4
:100090000C94D92A0C948C030C948C030C948C0330
:1000A0000C948C030C948C030C948C0305010902B2
:1000B000A10185020901A1000509190129081500FE
:1000C0002501950875018102050109300931158165
:1000D000257F95027508810609381581257F9501D0
:1000E00075088106050C0A38021581257F95017572
:1000F000088106C0C005010980A101850319012AF4
:10010000B700150126B700950175108100C0050CD8
:100110000901A101850419012AA002150126A002E6
:10012000950175108100C00660FF0961A101096297
:10013000150026FF00952075088102096315002629
:10014000FF00952075089102C005010906A101056F
:100150000719E029E7150025019508750181029529
:1001600001750881010507190029FF150026FF0008
:100170009506750881000508190129051500250156
:10018000950575019102950175039101C009025B06
:1001900000030100A0FA09040000010301010009A5
:1001A0002111010001224400070581030800010913
:1001B00004010002030000000921110100012222B4
:1001C0000007058203200001070503032000010941
:1001D0000402000103000000092111010001227B3B
:1001E000000705840320000112010002000000083E
:1001F00018CA1811010001020001180348006F001D
:100200006E00650079004C006F006300750073009C
:100210007400000022034500720072006F0072003B
:1002200034003200470065006E0065007200610016
:1002300074006F00720000000403090429001E000E
:100240001F00200021002200000000002B001400ED
:100250001A00080015001700000000003900040013
:100260001600070009000A0000000000E1001D0060
:100270001B0006001900050000000000E000E3007C
:10028000E20022522C0000000000000023002400A5
:100290002500260027002D002E002A001C00180033
:1002A0000C00120013002F00300031000B000D0075
:1002B0000E000F0033003400280000001100100071
:1002C000360037003800E50052004C0000002C00DA
:1002D0002152E6006500500051004F0035003A0001
:1002E0003B003C003D003E00000000002078010083
:1002F00027780100010001000000000001002278C1
:1003000028782178010001000000000001000100B0
:1003100001000100010001000000000001000100D7
:100320000100010001000000000000003F0040004B
:10033000410042004300440045004C000100010020
:10034000010001000100010001000100A9000100FD
:10035000010001000100010001000000AA00A80046
:10036000BC00BB000100D100CD00D2000000AE00F7
:10037000010001000100CF00CE00D000010001000B
:100380000100010001000100000000000100010067
:100390000100010001000100000000000100010057
:1003A0000100010001000100000000000100010047
:1003B0000100010001000100000000000100010037
:1003C0000100010001000000000000002E003800C4
:1003D00025022D000100010001000100240025007C
:1003E00026002E0201000100010001002100220070
:1003F00023002E0201000100010000001E001F006A
:100400002000280001000100010001000000270079
:1004100037002800010001000100010022232526E9
:1004200028292A2C2D2F3032333536383A3B3D3EA1
:100430004042434547494A4C4E5051535557595AEB
:100440005C5E6062646668696B6D6F717375777905
:100450007B7D7F81838587898A8C8E909294969804
:100460009A9C9E9FA1A3A5A7A8AAACAEAFB1B3B416
:10047000B6B8B9BBBCBEBFC1C2C3C5C6C7C9CACB6B
:10048000CCCDCED0D1D2D2D3D4D5D6D7D7D8D9D936
:10049000DADADBDBDBDCDCDCDCDCDDDDDDDDDCDC9F
:1004A000DCDCDCDBDBDBDADAD9D9D8D7D7D6D5D4BC
:1004B000D3D2D2D1D0CECDCCCBCAC9C7C6C5C3C288
:1004C000C1BFBEBCBBB9B8B6B4B3B1AFAEACAAA8DD
:1004D000A7A5A3A19F9E9C9A98969492908E8C8A91
:1004E00089878583817F7D7B79777573716F6D6B6C
:1004F0006968666462605E5C5A5957555351504E44
:100500004C4A4947454342403E3D3B3A38363533F5
:1005100032302F2D2C2A292826252322FFAA7F5569
:100520004000010101010101010101020202020278
:10053000020202020303030303030303040404048B
:100540000404040505050505060606060607070753
:10055000070708080808090909090A0A0A0B0B0B0A
:100560000C0C0C0D0D0D0E0E0E0F0F0F10101111A7
:10057000111212131314141515161617171818192B
:10058000191A1A1B1B1C1D1D1E1E1F202021222292
:10059000232424252626272829292A2B2C2D2D2ED5
:1005A0002F30313232333435363738393A3B3C3DEF
:1005B0003E3F404142434445464748494A4C4D4EE0
:1005C0004F50515354555658595A5B5D5E5F6162A6
:1005D00064656668696B6C6D6F7072737577787A35
:1005E0007B7D7E8082838587888A8C8E8F91939590
:1005F00096989A9C9EA0A2A3A5A7A9ABADAFB1B3B4
:10060000B5B7BABCBEC0C2C4C6C9CBCDCFD1D4D693
:10061000D8DBDDDFE2E4E7E9EBEEF0F3F5F8FAFD35
:10062000FF1E0F05643214783C1E1E140A050000DC
:1006300000000000000000000000000000000000BA
:1006400000000000000000000000000000000000AA
:1006500000007E0F00D4FFFFFFC7000000780000FD
:100660000000000000002A2B28000000000000000D
:1006700000000000000000000029000000002C1E07
:100680003420212224342627252E362D3738271EC4
:100690001F202122232425263333362E37381F04EA
:1006A00005060708090A0B0C0D0E0F101112131482
:1006B00015161718191A1B1C1D2F3130232D350440
:1006C00005060708090A0B0C0D0E0F101112131462
:1006D00015161718191A1B1C1D2F3130354C1124F3
:1006E0001FBECFEFDAE0DEBFCDBF23E0ACECB1E060
:1006F00001C01D92AD35B207E1F711E0A0E0B1E015
:10070000E4EDFBE502C005900D92AC3CB107D9F7D2
:100710000E9467210C946F2D0C9400008093FD02C1
:1007200008958093FE02089521E030E001C0220F79
:100730008A95EAF78091FE02822B0E949103089528
:1007400021E030E0A90102C0440F551F8A95E2F76D
:10075000CA0180959091FE0289230E949103089519
:100760009A3088F5883078F548E0949F90011124FC
:10077000280F311D877041E001C0440F8A95EAF7C8
:1007800083E0369527958A95E1F7F901EE0FFF1F73
:10079000E20FF31FEA53FD4F80E090E070E05191CB
:1007A000DF0111979B01082E02C0369527950A9408
:1007B000E2F7217021952527242325272C930196E4
:1007C0008330910561F708959A3078F5883068F59F
:1007D00048E0949F90011124280F311D982F9770A5
:1007E00083E0369527958A95E1F7F901EE0FFF1F13
:1007F000E20FF31FEA53FD4F40E050E080E021910B
:1008000030E0092E02C0369527950A94E2F7217050
:100810003327042E01C0220F0A94EAF7822B4F5F80
:100820005F4F4330510559F7089580E00895909146
:10083000FE0221E030E0F90101C0EE0F8A95EAF7EF
:10084000D90102C0AA0FBB1F6A95E2F7EA2B01C0CB
:10085000220F4A95EAF7892F8E23E81305C0892FC6
:10086000822B0E94910308952095822F8923F9CF2E
:100870008091040390910303981301C008958F5F42
:100880008770FACF9091FF02809589238093FF02B1
:10089000282F277021110DC0891759F0909101035D
:1008A00092FF07C08695869586950E94A0031092B8
:1008B000FF020895982F90958091FA0289238093E2
:1008C000FA020895803E9105D1F1C8F48133910573
:1008D00009F47FC048F48932910509F46FC08A3267
:1008E000910509F47DC0089589339105E1F08238BE
:1008F0009105C9F08533910509F45BC00895843EE4
:100900009105D1F148F4823E910531F1833E910584
:1009100041F181EE90E00895863E9105C1F1873E58
:100920009105E1F10895209100032370211165C024
:100930002091010323FF14C089E290E008952091E3
:10094000000320FD43C03091010330FF09C024FFA4
:100950004EC080E090E008952091000322FDF7CF83
:1009600008952091000322FD45C03091010330FD20
:1009700044C024FFF5CFEDCF2091010321FFF0CF3C
:100980008091000384FDE5CF87EE90E008952091EB
:10099000000323FFE5CF24FDDCCFF6CF2091000339
:1009A00023FD2EC03091010331FFE3CF84EE90E0B0
:1009B00008952091000325FFD3CFBECF20910003DF
:1009C00025FD21C02091010323FFCACF89E390E0D8
:1009D00008952091000326FFC3CF8AE290E0089596
:1009E0002091000326FFBCCF81E390E0089583EEC1
:1009F00090E0089582EE90E0089580EE90E00895F2
:100A000086EE90E0089585E390E0AACF90910003F0
:100A100092FF10C041E0282F2471243009F040E0FB
:100A200031E0282F2871283009F030E0431711F009
:100A30002CE0822793FF10C041E0282F247124313D
:100A400009F040E031E0282F2871283109F030E02A
:100A5000431711F02CE082273091010330FF10C0C2
:100A600051E0282F2171213009F050E041E0282F7A
:100A70002871283009F040E0541711F029E082274E
:100A800031FF10C041E0282F2171213109F040E0F1
:100A900031E0282F2871283109F030E0431711F098
:100AA00029E0822794FD877E08951F93CF93DF93DB
:100AB0000E946204EC01811522E5920708F053C000
:100AC000811540E5940708F0DDC0803E9105F8F4FB
:100AD0008D3C910508F0AEC0883A910580F4853AC6
:100AE000910508F099C08130910521F00497813A71
:100AF000910550F4CE01DF91CF911F910895885A4E
:100B000091094B9708F48BC0C0E0D0E0F3CF81157A
:100B100050E49507F8F4C11580E2D80708F0CBC07F
:100B2000C83ED10538F3CE019A9581159F4160F7F3
:100B30008D2F0E940605182FCE0199270E9462046E
:100B4000212F30E0322F2227E901CC27DF71C82B7B
:100B5000D92BD0CF99270E946204CC27DF70C82BF5
:100B6000D92BD06AC7CF803842E59407C8F58036C4
:100B700052E5950708F067C0C03482E5D807B0F0A9
:100B80008C2F86958695877020E2829FC001112464
:100B9000C37021E030E0A90102C0440F551FCA957F
:100BA000E2F7EA01C82BD92BDC68A4CFC03252E5AA
:100BB000D50708F041C08C2F8695869520E2829F4C
:100BC000C0011124C37021E030E0A90102C0440F2C
:100BD000551FCA95E2F7EA01C82BD92BDD688ACFE9
:100BE000803C52E5950760F48F71C03AD24508F019
:100BF0003FC090E0982F8827EC01C46FD06A7ACF6D
:100C0000805C9245809708F07FCFDC2FCC27CC27E3
:100C1000DF71C06FD06A6ECFA497D0646BCFC85A13
:100C2000D0E0CC0FDD1FCB56DE4F0990D881C02D10
:100C3000D46460CFD0655ECFCF71D0E0DC2FCC27FD
:100C4000C16FD06A57CF86958695877020E2829FC4
:100C5000C0011124C37021E030E0A90102C0440F9B
:100C6000551FCA95E2F7EA01C82BD92BDA6842CFA3
:100C70000E940605C82FD0E0DC2FCC27CC27DF71DF
:100C8000D06238CF8F710E94060565E0D695C79572
:100C90006A95E1F7CF70D0E0DC2FCC27282F30E029
:100CA00084FF05C054E0220F331F5A95E1F7C22B91
:100CB000D32BD0691FCF8D2F8F710E940605182F5F
:100CC000CE0199270E946204212F30E0322F222783
:100CD00022273F71282B392BE901D2CF80E00895DC
:100CE000F894E82FE295EF70F0E041A18F7021E0D9
:100CF00030E0B90102C0660F771F8A95E2F7CB0199
:100D0000962F9095942391A392A1892B82A37894F6
:100D100008950895A0E0B0E0E0E9F6E00C94A32B7C
:100D2000E901E42FF0E0EF5DFA4F61110BC0E491AF
:100D30009E2F8E2F8983E8839A83CDB7DEB7EAE0B2
:100D40000C94BF2B282F30E0062F10E0F491EF2FEA
:100D500086E0829F6001839FD00C1124EE24EA94E8
:100D6000F12CC601B7010E94872B220F331F45E5E6
:100D7000469FC001479F900D1124281B390B822FDD
:100D8000880F280FC701801B910BF89FA001F99FC6
:100D9000500D1124952F209F5001219FB00C11243C
:100DA000AB2CBB24D701AA19BB095D01FA9DD00168
:100DB000FB9DB00D11248B2F5701A21AB10895018C
:100DC000209F5001219FB00C309FB00C1124AB2C00
:100DD000BB24EA18FB08FE9D9001FF9D300D1124F5
:100DE00063307105C9F01CEFC11613E0D10650F451
:100DF0006130710509F49ECF6230710589F08E2F44
:100E0000E32F98CF6430710571F066307105B9F346
:100E1000E52F9B2F8F2F8ECFEB2F852F9F2F8ACFE4
:100E2000852F932F87CF832FE52FF8CF8091F20264
:100E3000843060F4837084608093F2028091F502C4
:100E4000893C18F088EC8093F502089587FFF6CF6F
:100E500083708C67F1CF609111018091F20280FF65
:100E60000EC070E02091100130E0C901880F991F79
:100E7000820F931F8E5B9D4F0E941D0B08958091E2
:100E8000120190911301282F30E0F901EE0FFF1F9E
:100E9000E20FF31FEE5BFD4F891718F711821082E6
:100EA00012828F5F3396F8CF9091F20290FF11C0BB
:100EB0009091120150911301292F30E0F901EE0FAA
:100EC000FF1FE20FF31FEE5BFD4F951718F00E9416
:100ED0002B0708958183608342839F5F3396F5CF0C
:100EE000A3E0B0E0E6E7F7E00C94AB2B9091F202C0
:100EF00090FF0DC0493C08F048EC9E012F5F3F4F2A
:100F00000E948A064B8169818A810E945407239638
:100F1000E2E00C94C72BCF93DF93EC01E2EFF2E019
:100F2000438162818C810E9470078C818F5F8C83EA
:100F3000DF91CF910895EFEEF2E01182828184601B
:100F400082830895E2EFF2E080818E7F80830E94A9
:100F50009B07EFEEF2E08281816082830E942B0783
:100F60000895CF93DF93EC01EC81F0E0E45EFB4F5A
:100F70004491E2EFF2E0628181810E9470078C81EE
:100F80008F5F8C83DF91CF910895EF92FF921F9333
:100F9000CF93DF93EC0110E0EE24EA94F12C609102
:100FA0001401161770F00E942B079A818C8190FF14
:100FB00028C08F5F8C83DF91CF911F91FF90EF90BE
:100FC000089580911201810F9927991F9C01220F8A
:100FD000331F280F391F2E5B3D4F4091F502493CCE
:100FE00008F048EC70E0C7010E94DE2B962F8C8140
:100FF0006091F402199F800D11240E948A061F5FE0
:10100000CECF8150D7CF0F931F93CF93DF93EC01B7
:1010100000E010E040911401842F90E008171907B8
:101020006CF00E942B078C8190E0019681709927CB
:101030008C83DF91CF911F910F91089580911201C0
:10104000800F912F911D9C01220F331F280F391FF4
:101050002E5B3D4F9C816091F4028091F302469596
:1010600050E00417150764F4992361F04091F502EC
:10107000493C08F048EC0E948A060F5F1F4FCACF18
:101080009923A1F340E0F7CFFA01882311F00995E5
:101090000895FB01FCCF282F35EB2303C001112459
:1010A00097FF04C080589109892F089580589F4F59
:1010B000FBCF8091E60280FD17C081FD17C082FD45
:1010C00019C08091E502882399F08C3398F428E3C5
:1010D000829FC00111246CE370E00E94DE2B611539
:1010E000710551F0862F08956EE0FCCF6CE1FACFC8
:1010F00068E0F8CF68E3F6CF81E008958091E602DA
:1011000080FD17C081FD17C082FD19C08091E402E7
:10111000882399F0883298F428E0829FC001112436
:1011200068E270E00E94DE2B6115710551F0862F98
:10113000089562E0FCCF64E0FACF61E0F8CF68E0A8
:10114000F6CF81E008958091B802882359F0E091AC
:10115000BC02F091BD02309729F00190F081E02DA2
:101160000995089580E00895A3E0B0E0EAEBF8E087
:101170000C94AB2B9C018091FA019091FB0182179A
:101180009307A1F03093FB012093FA01E091BC0298
:10119000F091BD02309751F083E089833B832A832D
:1011A0000084F185E02DCE01019609952396E2E0B9
:1011B0000C94C72BA3E0B0E0E0EEF8E00C94AB2B6E
:1011C0009C018091F8019091F90182179307A1F099
:1011D0003093F9012093F801E091BC02F091BD0237
:1011E000309751F084E089833B832A830084F18522
:1011F000E02DCE01019609952396E2E00C94C72BD1
:10120000A0EDB1E0EFEF90E02D91821751F0EF3FAC
:1012100019F4211101C0E92F9F5F9630A9F7EF3F24
:1012200009F408950E2E000CFF0BE253FE4F82834B
:101230000895E0EDF1E09191891303C0DF0111976A
:101240001C9291E0E63DF907B1F70895A4E0B0E003
:10125000ECE2F9E00C94AB2B8FB7F8942091A70245
:101260003091A8024091A9025091AA0229833A83A1
:101270004B835C838FBF69817A818B819C812496AB
:10128000E2E00C94C72BA4E0B0E0E9E4F9E00C94B0
:10129000AB2B8091B802882371F00E9426096983E4
:1012A0007A838B839C8369817A818B819C8124964C
:1012B000E2E00C94C72B0E94260969837A838B8312
:1012C0009C838091B4029091B502A091B602B09136
:1012D000B70229813A814B815C81280F391F4A1F4F
:1012E0005B1F29833A834B835C83DDCF87E797E7D6
:1012F000909301088093000888E19AE00FB6F89473
:10130000A895809360000FBE90936000FFCF8091FE
:10131000F70108950895FC019B018091ED019091E2
:10132000EE018617970740F0672B29F48091E800BB
:101330008E778093E800C90140E0009741F44111A5
:1013400006C08091E80082FF2FC080E008952091C0
:101350009E022223A9F12530A9F12091E80023FD66
:101360002DC02091E80022FDECCF2091E80020FF65
:10137000E4CF3091F3002091F200009719F028306B
:10138000310558F041E02830310509F040E0209166
:10139000E8002E772093E800D0CF41914093F100F0
:1013A00001972F5F3F4FE9CF80919E02882341F044
:1013B000853041F08091E80083FFC3CF81E008953C
:1013C00082E0089583E008958091E70187FF13C0CC
:1013D0008091E80082FF06C08091E8008B778093BF
:1013E000E80004C080919E028111F2CF089580919F
:1013F0009E028823D9F38091E80080FFF8CF809186
:10140000E8008E77ECCF2091E4003091E50095E67E
:10141000A9018091EC008170882331F08091E8006F
:1014200080FF06C080E008952091E80022FD1BC0E7
:1014300080919E02882391F0853091F08091EB009D
:1014400085FD10C02091E4003091E500421753075C
:1014500001F391509111DCCF84E0089582E008956A
:1014600083E0089581E00895E8EDF0E080818E7FCB
:1014700080831092E2001092DA001092E100A0EE58
:10148000B0E08C9181608C9380818F77808319BCD0
:10149000A7EDB0E08C918E7F8C9380818F7E8083CE
:1014A0001092E6010895FC01AC014B5F5F4F8FEF96
:1014B00091E32191822728E030E087FF0BC0880F5D
:1014C00089272150310921153105B9F7E417F507AE
:1014D00081F70895880FF5CF982FE42FE27090934D
:1014E000E900891308C0762F242F50E0E11111C0C4
:1014F00091E0980FF4CF7091EC002091ED005091A5
:10150000F00021FD06C09F5F973049F78093E90006
:1015100008953091EB003E7F3093EB003091ED0069
:101520003D7F3093ED003091EB0031603093EB0064
:101530007093EC002093ED005093F0002091EE00AA
:1015400027FDE1CF0895A0E0B0E0E9EAFAE00C94CD
:10155000A52BC8EDD0E088818F7E8883E7EDF0E091
:1015600080818160808384E082BF81E08093E60196
:1015700088818E7F888302EE10E0F801108210923D
:10158000DA0081EEC82ED12CF601108288818F7787
:10159000888388818068888388818F7D888319BC4F
:1015A00010929E021092E50110927A021092E401CC
:1015B00090EEE92EF12CF70180818B7F808388816A
:1015C0008160888342E060E080E00E946C0AF6015E
:1015D00080818E7F8083F80180818160808380811B
:1015E00088608083F70180818E7F8083888180611D
:1015F0008883CDB7DEB7E8E00C94C12BE0910403FB
:101600009091030327E0E91302C080E00895AE2F14
:10161000B0E02E9FF0011124EB5FFC4F31813613B7
:1016200006C03081381303C03581341304C0FD0176
:101630003196E770E8CF81E008959C01AB01259ACF
:1016400065B16F7D75B17062EFB7F894CA01880F0C
:10165000991F840F951F820F931F8217930741F4E0
:10166000EFBF8FE594E00197F1F700C00000089507
:10167000D9014D919D0158E075B9000000C047FFA8
:1016800065B9440F000000C000C000C065B900C0CB
:101690005A9591F7E2CF0F931F93CF93DF93EB010E
:1016A0008A0190919E02943079F58093E9008FEF42
:1016B0009091E80095FD07C095ED9A95F1F700002F
:1016C00081508111F5CF8091E80085FF1DC00E94F7
:1016D000030A811114C08091E80085FD06C0809145
:1016E000E8008E778093E800F2CF88818093F10044
:1016F000015011090115110511F02196ECCF8091CF
:10170000E8008E778093E800DF91CF911F910F91D1
:101710000895CF93DF93D82FC92F48E050E0682F6A
:10172000792F81E00E944B0B88E0ED2FFC2FAFEE6C
:10173000B1E001900D928A95E1F7DF91CF91089584
:10174000BC0146E050E084E00E944B0B0895BC01D0
:1017500043E050E084E00E944B0B0895A0E0B0E02D
:10176000E4EBFBE00C94A32BF82EE92EB62EA72E6B
:101770008A018091E201CC24C394D12C8A3018F4E0
:101780008AE0C82ED12CC1E0D0E06B2D7A2D8F2DB0
:101790009E2DF8010995811116C02196CC16DD0603
:1017A00094F0CC9FC001CD9F900D900D112420E0AE
:1017B00030E045E34A95F1F700002F5F3F4F2817CF
:1017C0003907B9F7E2CFCDB7DEB7EAE00C94BF2B0B
:1017D0009091010392FB222720F9281779F080FBD2
:1017E00092F990930103609100037091010384E0EA
:1017F00090E00E94F62C82E00E94420408951F931C
:10180000CF93DF93C62F122F632F8430D8F4CA30C2
:10181000C8F44830B8F490E1C99FE001112450E0C9
:10182000440F551FC40FD51F90EA899FC00DD11DCD
:101830001124CE0189960E94D82C612FCE018A9660
:101840000E94D82CDF91CF911F910895AF92BF9243
:10185000CF92DF92FF920F931F93CF93DF93A12C30
:10186000B12CC0E06501D0E019C021E030E0C33008
:1018700021F0F801859194919C014F2D6D2F8C2FB3
:101880000E94FF0BF3940E5F1F4F88E0F812EDCF1C
:10189000DF5F88E0C80ED11CDA3039F08601000F16
:1018A000111F045C1D4FF12CE0CFCF5F80E5A80E27
:1018B000B11CC430B9F6DF91CF911F910F91FF9009
:1018C000DF90CF90BF90AF900895CF93DF93C9EA98
:1018D000D2E060E0CE010E94D82C2196C11584E0B0
:1018E000D807B9F7DF91CF910895882381F064E29A
:1018F00085E290E00E94D82C64E086E290E00E94AD
:10190000D82C69E087E290E00E94D82C08956FEF10
:1019100085E290E00E94D82C6FEF86E290E00E9472
:10192000D82C6FEFEFCF80E00E94750C60E088E26A
:1019300090E00E94D82C0E94260C0E94650C81E049
:101940000E94750C08950F931F93CF93DF938430FB
:1019500030F56A3020F5483010F520E1629FE00153
:10196000112450E0440F551FC40FD51F30EA839F48
:10197000C00DD11D1124CE0189960E94B42C082FD0
:1019800010E0102F0027CE018A960E94B42C9801F7
:10199000282BC901DF91CF911F910F91089580E00D
:1019A00090E0F8CF462F672F7A3038F4483028F48B
:1019B000843018F40E94A30C089580E090E008950C
:1019C000A0E0B0E0E6EEFCE00C94A62B7C010091D8
:1019D000FE028091FD02082BC3E0D0E010E0C801B8
:1019E0000C2E02C0959587950A94E2F780FD09C0F8
:1019F0002197A8F7D12C8D2DCDB7DEB7E7E00C9459
:101A0000C22BDC2EB7018C2F0E94D20C0E945505F0
:101A1000019771F3F0CF0F931F93CF93FC01858152
:101A200000811181882391F0662381F0C8010E9412
:101A3000E00CC82F682FC8010E94B003B8018C2F9A
:101A40000E94D20CCF911F910F910895C8010E945E
:101A5000E403C82FF3CFCF93DF93D82FC92F0E9471
:101A6000E00C6D2F7C2F0E94D20C0E945505DF9157
:101A7000CF910895FC0184818823A1F08081918118
:101A80000E942B0D282F92959F70963091F060F454
:101A9000925F9F70923030F481E0203F79F030F413
:101AA000283E30F080E004C09A5FF3CF243FD1F7A6
:101AB000089581E0283E18F0213FF9CF0895089558
:101AC00085E290E00E94B42C843289F486E290E0B2
:101AD0000E94B42C843059F487E290E00E94B42C28
:101AE00091E0893009F090E0892F8170089580E0BD
:101AF000FCCF8091FA0290910203892B4091FB0266
:101B0000442389F090E020ED31E0F90150812F5F0E
:101B10003F4F51119F5F51E0263D3507B1F79111BD
:101B20001092FB02842B8093CE0148E050E06EEBD4
:101B300072E08EEC91E00E949E2C892BA9F088E047
:101B4000EEECF1E0AEEBB2E001900D928A95E1F798
:101B5000E091BC02F091BD02309731F00280F38138
:101B6000E02D8EEC91E009950895882339F090914D
:101B7000FA02892B8093FA020E94790D0895882336
:101B800021F00E945A040E94790D0895A0E0B0E06F
:101B9000ECECFDE00C949E2B582EFA0159016801E3
:101BA00098E08902E0011124EF2B69F5FE01E35D65
:101BB000FE4F86819781892B09F04AC0C114D10458
:101BC00001F1FE01E35DFE4FE380F12CCE14DF0452
:101BD00008F47601C35DDE4F6C817D81AB01495B0A
:101BE0005C4F04E610E0970182E30E94342A97FDDF
:101BF00029C06C817D81695B7C4FA701C5010E9472
:101C0000AB2C81E020C0DE01A35DBE4FEC90F12C37
:101C10004E155F0508F47A01FE01E35DFE4F8180F9
:101C20009280C401895B9C4F3C01A7010E94AB2CB0
:101C300004E610E09701A301682D82E30E94E229E7
:101C400097FFB4CF80E0CDB7DEB7EFE00C94BA2BAE
:101C50005092470360912E0170912F0120912D0128
:101C600030E0AB01495B5C4F04E610E082E30E9488
:101C7000E22997FFA3CFE6CFA6E0B0E0E2E4FEE0E2
:101C80000C94A72B7B0101E010E09E012A5F3F4FDF
:101C900040E050E060E070E081E00E94C60D182F47
:101CA000882309F44EC04091B0025091B102609176
:101CB000B2027091B3022FB7F8948091A70290916D
:101CC000A802A091A902B091AA022FBF841B950B74
:101CD000A60BB70B84369105A105B10538F489E44C
:101CE00093E00E94530A9E81891759F105E010E0A4
:101CF0009E012F5F3F4F40E050E060E070E082E0E7
:101D00000E94C60D182F89E493E00E94530A9E8119
:101D1000981322C0112301F10E9426096093B0029A
:101D20007093B1028093B2029093B30285E0FE01FA
:101D30003196ABEAB2E001900D928A95E1F781E02D
:101D40000CC085E0E9E4F3E0DE01119601900D920C
:101D50008A95E1F71111EACF80E095E0EBEAF2E035
:101D6000D70101900D929A95E1F72696E6E00C9442
:101D7000C32BA8E0B0E0EFEBFEE00C94A92B409160
:101D8000A3025091A4026091A5027091A6022FB700
:101D9000F8948091A7029091A802A091A902B09115
:101DA000AA022FBF841B950BA60BB70B11E084363C
:101DB0009105A105B10520F10E944309DC01CB0189
:101DC0000296A11DB11D89839A83AB83BC8300E079
:101DD00010E020E030E044E050E0BE016F5F7F4F54
:101DE00083E00E94C60D182F882351F00E94260917
:101DF0006093A3027093A4028093A5029093A6021D
:101E0000812F2896E4E00C94C52BABE0B0E0EBE02A
:101E1000FFE00C94A52B88E0E2EFF2E09E012F5F3B
:101E20003F4FD90101900D928A95E1F74091EF0261
:101E30009091F0028091F10249879A878B87C09038
:101E40009F02D090A002E090A102F090A2029FB762
:101E5000F8944091A7025091A8026091A902709154
:101E6000AA029FBF4C195D096E097F09E22F932FCB
:101E7000443651056105710510F48823B9F000E07E
:101E800010E020E030E04BE050E06E2F792F84E04E
:101E90000E94C60D882369F00E94260960939F0264
:101EA0007093A0028093A1029093A2021092F1027B
:101EB00081E02B96E8E00C94C12BA0E0B0E0E3E6D3
:101EC000FFE00C949D2BFC016280448081E08483C0
:101ED000ECE1F4E07490EBE9F4E0E491C091F502F8
:101EE000C695C158D0E0CC0FDD1FED2EFF24812C0C
:101EF00075E0972EAA24AA94B12C55245A94E71978
:101F0000CE2ED12C80911401881638F00E942B0718
:101F1000CDB7DEB7E0E10C94B92B082D10E082E0DC
:101F2000861568F0909EF001919EF00D1124E4500A
:101F3000FE4F8091F30280838091F40281834110EF
:101F40002DC0909EF001919EF00D1124E450FE4FA3
:101F50001382128280911201800F912F911D9C019A
:101F6000220F331F280F391F2E5B3D4F909EF0012B
:101F7000919EF00D1124E450FE4F4281493C08F03F
:101F800048EC909EF001919EF00D1124E450FE4F1C
:101F9000618180810E948A068394B4CF909EE00183
:101FA000919ED00D1124C450DE4F8B818823E9F01F
:101FB00081508B83589EC00111246C8170E00E9477
:101FC000872BFB01FF27E45EFB4F8491E82FE71985
:101FD0005E9EC0011124B6010E94872B8091F502FC
:101FE000689FB00111247A83B5CF0E94812CB5017E
:101FF0000E94DE2B8E159F050CF0ACCF82E086157B
:1020000088F40E94812CB5010E94DE2B88830E94F7
:10201000812C2091F4022695622F70E00E94DE2B25
:10202000280F2983909EF001919EF00D1124E45019
:10203000FE4F12828091F502893C58F088EC909E08
:10204000F001919EF00D1124E450FE4F84838383B0
:1020500081CF8431A0F784E1F2CFA0E0B0E0E3E3E8
:10206000F0E10C94A52B8901D42FC52F6B017C01C5
:102070000E941607A8016D2F7C2F88E090E00E9437
:10208000EA2C98014D2F5C2FB601C70100E20E9497
:102090001A2C622F84E290E00E94D82CCDB7DEB7D4
:1020A000E8E00C94C12B8091F602833018F48F5F26
:1020B0008093F6022091F2023091F3024091F402F3
:1020C0005091F5026091F6027091F7028091F8024A
:1020D0009091F9020E942D1008958091F6028823B4
:1020E00019F081508093F6022091F2023091F302B0
:1020F0004091F4025091F5026091F6027091F7025E
:102100008091F8029091F9020E942D100895A3E0A9
:10211000B0E0EDE8F0E10C94A32BE82ED62EF42EDF
:10212000B22E9091F20290FF46C03091F302381324
:1021300008C08091F402861304C08091F5028417D0
:1021400029F08091F10282608093F102E92FE695F7
:10215000E695AE2FB0E0AD58BE4F8C918093EF0264
:102160009C7F943061F54F2D88EC8F1508F448EC76
:102170009E012F5F3F4F6D2D8E2D0E948A064B8151
:1021800069818A810E9454073E2D3093F302D092D8
:10219000F402F092F502BB2071F02091F2026091FE
:1021A000F6027091F7024D2D5F2D8091F80290910B
:1021B000F9020E942D102396EAE00C94BF2B823086
:1021C00019F4F090F502E0CF8630F9F28930E9F2A7
:1021D0008F30D1F6EF509E2F9170A92EE695F0E04A
:1021E000E45EFA4FE491C12C0E2F10E060911401CF
:1021F000C61618F00E942B07C7CF2C2D30E0C09ECA
:10220000C001C19E900D112470E00E94872B8E2D7D
:10221000A11017C0860F90911201A901490F511DFD
:102220009A01220F331F240F351F2E5B3D4F4F2D78
:1022300098EC9F1508F448EC6D2D0E948A06C39413
:10224000D5CF861BE8CFE2EFF2E0818121E0438128
:102250006281885F0E9487100895E2EFF2E0818139
:1022600021E04381628188500E9487100895E2EF47
:10227000F2E0628121E1620F08F46FEF21E0438117
:1022800081810E9487100895E2EFF2E0628121E1EE
:10229000621B08F460E021E0438181810E94871085
:1022A0000895E2EFF2E0438121E1420F08F44FEF9D
:1022B00021E0628181810E9487100895E2EFF2E0BF
:1022C000438121E1421B08F440E021E062818181E9
:1022D0000E94871008951F921FB61F9211248F939A
:1022E0009F93AF93BF9380917902811113C0809126
:1022F000A7029091A802A091A902B091AA024196CA
:10230000A11DB11D8093A7029093A802A093A902DA
:10231000B093AA02BF91AF919F918F911F901FBE62
:102320001F9018952FB7F8948091A7029091A8025A
:10233000A091A902B091AA022FBF08958091B8027E
:10234000882319F00E94921108950E944309CB013D
:1023500008956091F2026695669570E04BE050E05A
:1023600085E091E00E94912C892B19F481E0809303
:10237000F0020E949E1190938A02809389028091BC
:10238000F10284608093F10208959091F20290FF2F
:1023900042C0882309F440C0803208F03FC08F73E8
:1023A000282F220F220F8091F2028370282B209376
:1023B000F2028091F10281608093F102662381F044
:1023C0003091F3024091F4025091F5026091F602CF
:1023D0007091F7028091F8029091F9020E942D10FD
:1023E0006091F2026695669570E04BE050E085E002
:1023F00091E00E94912C892B99F00E949B0781E02B
:1024000080938C0220E04091F5026091F40280916B
:10241000F3020E948710089581E0C2CF8FE1C0CF00
:102420000E94A911ECCF8091F202869586958F5F6C
:10243000803208F081E061E00E94C511089590911A
:10244000F202969596958FEF890F913009F48FE1FE
:1024500061E00E94C51108959091F20290FF09C0B9
:1024600096959695981728F0961718F40E941312CF
:10247000089561E00E94C51108950E949211209173
:10248000E9023091EA02232B222321F0809391026A
:10249000909392022091EB023091EC02232B2223A5
:1024A00021F080938F0290939002E091BC02F09112
:1024B000BD02309749F082E08093E7020680F78101
:1024C000E02D87EE92E0099508952091E902909120
:1024D000EC023091EB02662309F45AC04091EA0203
:1024E000242B292B232B222331F098E09093E50213
:1024F00091E09093E4028D3C41F40E94590881954B
:102500008093EA020E943D120895E2E3E80FE2316F
:10251000C8F7F0E0EF58F24D0C94F22B0E945908E6
:10252000EFCF0E94590881958093E902EBCF0E947A
:102530005908FACF0E947E088093EB02E3CF0E94F5
:102540007E088195F9CF0E947E0881958093EC02E8
:10255000D9CF0E947E08FACF815D990B21E030E04F
:1025600001C0220F8A95EAF78091E802822B8093BE
:10257000E802C8CF8091E60281608093E602C2CF74
:102580008091E6028260F9CF8091E6028460F5CF07
:102590008D3C59F48091EA0287FF0DC01092EA0247
:1025A000222359F41092E50208C08E3C81F48091F8
:1025B000EA0218169CF3222381F08091EB0290919D
:1025C000EC02892B81119ECF1092E4029BCF8F3CAD
:1025D00041F427FFF0CF1092E9028091EA028823AC
:1025E000E0CF803D19F41216B4F3E5CF893D29F40C
:1025F00013160CF71092EB02DECF8A3D19F437FF69
:10260000DACFF8CF8B3D29F497FFD5CF1092EC02AB
:10261000D2CF8C3D19F41916CCF3CDCF9FE2980F91
:10262000983090F4815D990B41E050E0BA0102C00E
:10263000660F771F8A95E2F7CB0180959091E802AB
:1026400089238093E802B7CF8D3D31F48091E60273
:102650008E7F8093E602AFCF8E3D21F48091E6021B
:102660008D7FF7CF8F3D09F0A6CF8091E6028B7F5B
:10267000F0CFCF93C82F8823C9F08238C9F40E94C5
:10268000A30881FD13C089E30E9400090E94790D0F
:102690002FEF37EE83E0215030408040E1F700C05B
:1026A000000089E30E9419090E94790DCF910895D5
:1026B0008338A1F40E94A30880FDF8CF83E50E942F
:1026C00000090E94790D9FEF21EE34E091502040E7
:1026D0003040E1F700C0000083E5E4CF8438A1F486
:1026E0000E94A30882FDE2CF87E40E9400090E94B5
:1026F000790D8FEF91EE24E0815090402040E1F77A
:1027000000C0000087E4CECF8CEF8C0F813A70F4CC
:10271000E0EDF1E086ED91E02191C217D9F18E173D
:102720009F07D1F78C2F0E940009BECF80E28C0F4B
:10273000883068F4C77021E030E001C0220FCA95EC
:10274000EAF78091FA02822B8093FA02ADCF8BE5F3
:102750008C0F833038F42C2F2452330BC9010E9484
:10276000B408A4CFE8E5EC0FEB3150F4F0E0EE0F45
:10277000FF1FEB56FE4F808191810E94DA0896CFB1
:1027800083E38C0F833108F091CF61E08C2F0E949E
:1027900065128CCF8C2F0E9419090E94790DC2CF2F
:1027A000882309F456C0823879F40E94A30881FF77
:1027B00050C089E30E9400090E94790D89E30E94BC
:1027C00019090E94790D0895833859F40E94A308CD
:1027D00080FF3FC083E50E9400090E94790D83E5D8
:1027E000EECF843859F40E94A30882FF32C087E4F8
:1027F0000E9400090E94790D87E4E1CF9CEF980FB9
:10280000913AE8F290E2980F983050F4877091E096
:1028100001C0990F8A95EAF7892F0E945A04D1CFF7
:102820009BE5980F933028F480E090E00E94B40874
:10283000089598E5980F9B3128F480E090E00E947D
:10284000DA08089593E3980F933118F460E00E943A
:10285000651208951F93CF93DF93182FEB010E9409
:102860003913209739F4812F0E94D013DF91CF9133
:102870001F9108958FE99FE00197F1F700C00000D4
:102880002197EFCFCF931092FA02C6E0E0EDF1E08E
:10289000DF018C2F1D928A95E9F780E090E00E947D
:1028A000B40880E090E00E94DA08109202030E94CF
:1028B000790DE7EEF2E0DF011D92CA95E9F710927B
:1028C000E5021092E4021092E6020E943D12CF91BE
:1028D00008950E9442142FEF84E39CE02150804031
:1028E0009040E1F700C0000088E19AE00FB6F8944C
:1028F000A895809360000FBE90936000FFCFAAE27E
:10290000B0E0E5E8F4E10C94AA2B87EE91E0FC013D
:1029100001962091F100208321E08F3E9207B9F7C4
:102920008091E801893009F456C0C8F4823009F476
:10293000B3C0833009F482C0813071F18091E80026
:1029400083FFE7C08091E7019091E8019A3008F099
:10295000E0C0E92FF0E0ED57F24D0C94F22B8A30F5
:1029600009F489C08B3051F78091E701813231F74A
:102970008091EB019091EC01892B01F78091E800A7
:10298000877F8093E8000E94E4098091E9018093A9
:1029900004010E944214D2CF8091E701813A71F67E
:1029A0008091E800877F8093E8008091EB0190910F
:1029B000EC01892B61F060E080E090E070E00E9423
:1029C0008B098091E8008B778093E800B7CF68E0AF
:1029D0008FEE91E0F3CF8091E701813209F0AECF25
:1029E0008091EB019091EC018D7F892B09F0A6CFAE
:1029F0008091E800877F8093E8008091E80082FF63
:102A000018C09091F3008091F200029731F4809108
:102A1000F100813011F0863021F48091F100809333
:102A2000F7018091E8008B778093E8000E94E40929
:102A300085CF80919E028111E0CF80CF8091E70108
:102A4000813A09F07BCF8091EB019091EC01892BC9
:102A500009F074CF8091E800877F8093E80080912F
:102A6000E80080FFFCCF809104018093F100809109
:102A7000E8008E77D9CF8091E701813209F05ECFEF
:102A80008091E800877F8093E8000E94E4098091AC
:102A9000EA018093E30152CF8091E701813A09F086
:102AA0004DCF8091E800877F8093E8008091E80017
:102AB00080FFFCCF8091E301D8CF803889F0823845
:102AC00041F58091EB018F70873018F58093E90014
:102AD0008091EB0085FB882780F91092E90006C001
:102AE0008091E40190917A02911182609091E800C6
:102AF000977F9093E8008093F1001092F10080910D
:102B0000E8008E7723C0811116C08091E9018130E1
:102B100011F18091E80083FF0AC08091E800877F6F
:102B20008093E8008091EB0080628093EB00AA968E
:102B3000E3E00C94C62B823061F78091E901882391
:102B400089F01092E9008091E800877F8093E80087
:102B50000E94E409DECF81E0933009F080E08093A9
:102B60007A02EFCF8091EB018F702FEF280F263084
:102B700080F68093E9002091EB0020FFE2CF9330B4
:102B800031F48091EB0080628093EB00DACF90917A
:102B9000EB0090619093EB0021E030E0A90102C0CE
:102BA000440F551F8A95E2F74093EA001092EA001D
:102BB0008091EB008860E8CF8111ABCF1091E901E3
:102BC0001F778091E3008078812B8093E3008091D0
:102BD000E800877F8093E8000E94E4098091E80084
:102BE00080FFFCCF8091E30080688093E30083E066
:102BF000111101C082E080939E028BCF80588230F9
:102C000008F087CF4091E9015091EA014C3D83E003
:102C1000580799F583E08A838AE289834FB7F8944D
:102C2000DE01139620E03EE051E2E32FF0E0509306
:102C30005700849120FF03C082958F703F5F8F7093
:102C40008A30C8F0895C90E08D939D932F5F24318A
:102C500061F74FBF8091E800877F8093E8006AE2C8
:102C600070E0CE0101960E948B098091E8008B777D
:102C70008093E8004ECF805DE6CF8091EB0190918C
:102C8000EC01252F33272330310509F44AC078F5AC
:102C90002130310509F479C08BE590E0EDE8F1E0F1
:102CA0002230310509F035CF2091E800277F2093AD
:102CB000E8002091ED013091EE018217930708F4AE
:102CC0009C0140E02115310509F064C0411162C04A
:102CD0008091E80082FDC9CF80919E02882329F26D
:102CE000853019F28091E80083FFF2CFBECF213208
:102CF000310509F43BC02232310509F00ACF833097
:102D0000910508F006CFFC01EE0FFF1FE959FE4FB9
:102D10000190F081E02D8C599E4FDC018C9190E068
:102D200011C0CA019927413089F082309105B1F074
:102D3000892B09F0EECEE8E3F2E0E4918E2F90E0EB
:102D4000E8E3F2E0009709F4E4CEAECFE4E1F2E08C
:102D5000E4918E2F90E0E4E1F2E0F4CFEAEFF1E0CD
:102D6000E4918E2F90E0EAEFF1E0ECCF8330910513
:102D700008F0CFCEFC01EE0FFF1FE359FE4F01908C
:102D8000F081E02D89E090E08FCF82E190E0E8EEE5
:102D9000F1E08ACF80919E02882309F466CF8530C6
:102DA00009F463CF8091E80083FD5FCF8091E80054
:102DB00082FD8ECF8091E80080FF84CF9091F30058
:102DC0008091F2002115310519F08830910550F0FD
:102DD00041E0089709F040E08091E8008E77809309
:102DE000E80070CF44914093F100319621503109B1
:102DF0000196E8CF803809F08CCE8091E800877F7B
:102E00008093E8008091E5018093F10078CE8111F4
:102E100080CE1091E901123008F07BCE8091E8005D
:102E2000877F8093E8001093E5010E94E409112355
:102E3000D1F084E080939E0242E061EC81E00E9448
:102E40006C0A42E261EC84E00E946C0A42E261ECAE
:102E500082E00E946C0A42E260EC83E00E946C0A0D
:102E600080919E0256CE8091E30087FDE2CF81E003
:102E7000E1CF9C014FB7F8948091A7029091A802EE
:102E8000A091A902B091AA024FBF821B930B089593
:102E90000F931F93CF93DF93C62FD42F122F882326
:102EA000A9F06093ED020E9492119093E10180934A
:102EB000E001C77081E001C0880FCA95EAF70E945F
:102EC000B50DDF91CF911F910F9108958091ED0283
:102ED000681336C08091E0019091E1010E9439179A
:102EE000883C910568F5CD130EC060E070E0812F3D
:102EF0000E942A14D77081E001C0880FDA95EAF7A2
:102F00000E94BF0DDECFC77001E0802F01C0880F87
:102F1000CA95EAF70E94BF0D80E28D0F883050F409
:102F20008D2F877001C0000F8A95EAF7802F0E94CD
:102F3000B50DDBCF60E070E0812F0E942A14C1CF75
:102F4000C77081E001C0880FCA95EAF7D9CFA8E021
:102F5000B0E0EDEAF7E10C949E2B6C01DC011496D5
:102F60008C91882309F4B4C061E0C6010E940B0D66
:102F70008C01F6018581882309F494C5980137579F
:102F80002038310508F099C5003108F090C08FEF66
:102F900093E00E94B42C81118AC029EAE22E22E03B
:102FA000F22E011153C01A821982FE01339686E077
:102FB000DF011D928A95E9F75701BFEFAB1ABB0AF3
:102FC000C7010E94B42C89831A82882309F46FC038
:102FD000813009F081C087010E5F1F4FC5010E943B
:102FE000B42C8A83882309F462C09FEF980F933032
:102FF000E0F5E3E0EE0EF11CC8010E94B42C8B83D7
:10300000882309F454C01C828E010F5F1F4FD80122
:103010008C91882389F2813009F0A1C011968C919E
:103020001197813009F05AC05801B2E0AB0EB11CC3
:10303000F801828160E070E0893311F460E570E0AE
:103040000E942A1485010F5F1F4FE1CFE114F4E0C5
:10305000FF0669F1C7010E94B42C97012F5F3F4F13
:1030600079018111F3CF01509CCF8430B9F492E003
:10307000E92EF12CC8010F5F1F4F0E94B42CE1E034
:10308000F0E0EC0FFD1FEE0DFF1D8083882379F02B
:103090008C3731F4FE01EE0DFF1D12827801B4CFA2
:1030A000FFEFEF1AFF0A27E0E216F10419F780910B
:1030B000FF028770882361F0D60115968C918823D2
:1030C00039F08091010382FF03C082E00E94420434
:1030D0002896EFE00C94BA2B750196CF823049F414
:1030E0005801F2E0AF0EB11C12968C910E94391378
:1030F000A9CF833049F45801B2E0AB0EB11CF801FE
:1031000082810E94D0139ECF843019F00F5F1F4F31
:103110009ACF12962C910E5F1F4F80E090E06AE0EC
:10312000A8014F5F5F4F2053330B2A30310558F011
:10313000009709F488CFAFE9BFE01197F1F700C01D
:1031400000000197F5CF689FF001699FF00D1124F1
:10315000C9018E0F9F1FF80121818A01E1CFE82F5D
:10316000F0E0E25AF94F6490282F2695269526958F
:1031700030E0F901E25BF94FA4908770782EB12C12
:10318000082E02C0B594A7940A94E2F7B1E0AB22EE
:10319000BB24F901E25CF94F8490912C02C0959414
:1031A00087948A95E2F7E1E08E229924F901E25DA5
:1031B000F94F5490A114B104C1F48114910421F584
:1031C00060E070E0862D0E942A14E52DF0E0072CC7
:1031D00002C0F595E7950A94E2F7E0FF34CF60E08E
:1031E00070E08CE20E942A142ECF81EE0E943913E7
:1031F0008114910449F460E070E0862D0E942A1445
:1032000081EE0E94D013E1CF86EE0E94391360E078
:1032100070E0862D0E942A1486EE0E94D013AB28FF
:10322000A1F2EECF26E241EE61EE0E9448173FCFB9
:1032300027E245EE65EEF9CF26E241EE60EEF5CFEE
:1032400027E245EE64EEF1CF26E241EE62EEEDCFED
:1032500027E245EE66EEE9CF28E241E0EBCF06310A
:10326000FCE71F0709F0DFC08091EE028111D9C091
:1032700089E20E941909D0C0809100038160809387
:103280000003609100037091010384E090E00E94CC
:10329000F62C0E9442140BCF80910103886080932A
:1032A0000103EFCF809100038260E9CF809100039A
:1032B0008460E5CF809100038860E1CF80910103B5
:1032C0008160EDCF809101038260E9CF809100039E
:1032D0008061D5CF809100038062D1CF80910003BF
:1032E0008064CDCF0E944214809100038068C7CFD4
:1032F000809100038C60C3CF809101038360CFCFA6
:10330000809100038E7FBBCF80910103877FC7CF61
:10331000809100038D7FB3CF809100038B7FAFCF6F
:1033200080910003877FABCF809101038E7FB7CF61
:10333000809101038D7FB3CF809100038F7E9FCF5B
:10334000809100038F7D9BCF809100038F7B97CF6F
:103350000E944214809100038F7791CF80910003E7
:10336000837F8DCF809101038C7F99CF8091000363
:1033700082FB992790F921E0922790FB82F990FB3C
:1033800083F97DCF80910103982F909591708E7F66
:10339000892B90FB81F983CF90910003892F8F7B3C
:1033A00096FF80646CCF0E94421490910003892F95
:1033B00097FB87F9805863CF61E08EE090E00E9430
:1033C000D82C5FCF60E0F9CF90910003892F8F7EDA
:1033D00094FF806154CF90910003892F8E7F90FFDE
:1033E00081604DCF90910103892F877F93FF886083
:1033F00056CF06312CE7120709F096C08091FA02E9
:103400008A7A91E0811101C090E09093EE028823C6
:1034100031F085E30E9400090E94790D48CE89E2CF
:10342000F9CF85E326CF8091FA028272F801E0524B
:10343000F847E531F10508F0A3C0E357F24D0C94CD
:10344000F22B8091F20280FF1EC0282F2E7F209346
:10345000F2023091F3024091F4025091F502609132
:10346000F6027091F7028091F8029091F9020E94A1
:103470002D100E949B078091F10281608093F102E0
:103480000E942B0714CE81608093F20261E0869542
:1034900086950E94C5110BCE4FE152E163E172E1C6
:1034A0000E94440804CE43E152E16FE172E1F8CF9B
:1034B0004DE251E163E271E1F3CF43E251E16DE2AC
:1034C00071E1EECF44E451E167E371E1E9CF47E315
:1034D00051E164E471E1E4CF4EE551E161E571E170
:1034E000DFCF41E551E16EE571E1DACF4DE650E124
:1034F00063E570E1D5CF43E550E16DE670E1D0CFF3
:1035000061E081E0C6CF65E082E00E942C12CFCD61
:1035100068E086E0FACF6EE089E0F7CF68E18FE0FF
:10352000F4CF6FE18AE1F1CF07373CE7130709F4E5
:1035300084C008378CE7180709F48CC00A35BCE74B
:103540001B0709F4A4C008F087C00130FCE71F077F
:1035500009F49BC003302CE7120709F490C0011551
:103560003CE71307C1F40E944214AFEFB4E3ECE070
:10357000A150B040E040E1F700C000000E94760991
:1035800007379CE7190709F461C082E00837ACE708
:103590001A0709F45CC0F6018581E080F180882378
:1035A00009F479C0C7010E94E00C182F682FC701E9
:1035B0000E94B003B701812F0E94D20C0E945505D2
:1035C000E82E192FD6011596BC9015971696AC903B
:1035D000A2948FE0A8228091FF028770882309F1CE
:1035E000FB2CBB20F9F0892F807F803469F080E2CA
:1035F0008E0D8830B0F0892F807E803229F4B1E0C2
:10360000BE1578F4AA2069F08091010382FF09C0F9
:1036100082E00E9442048091FF028770FF24F394AD
:103620008111F12CE12FE295EF70103C08F09AC067
:10363000F0E0EE55F24D0C94F22B81E00E949403E1
:1036400043E062E081E00E94170431CD81E00E94F6
:10365000A003F6CF82E0F2CF0B358CE71807C9F054
:103660000C359CE7190709F096CF8091010382FB86
:10367000882780F991E089270E94E80B8CCF6FEFB3
:103680007FEF80E090E00E94F62C0E94691481E0B8
:10369000F3CF80E0F1CFC7010E94E403182F8ACF57
:1036A000012F0F70103110F00295007FBB20B9F090
:1036B000002369F080E28E0D883010F0E11009C01F
:1036C0008091FA02802B8093FA020E94790D8E2D50
:1036D00041C080910203802B80930203F6CF8E2D90
:1036E0000E94D0130023F1F180E28E0D883010F09B
:1036F000E11004C0802F0E945A0406C000958091FA
:1037000002038023809302030E94790D2BC0012FB6
:103710000F70107F103211F00295007FEE2051F0F3
:10372000E1E0EE1609F46CC0BB2009F478C0AA20D1
:10373000D1F1CDCF8091010382FD31C0BB2069F072
:10374000002339F08091FA02802B8093FA020E94C4
:10375000790D80E00E94391305C080E00E94D013EB
:103760000111C8CFFF20B1F08091FF0280FD12C08F
:10377000D60115961C928695869586950E9494038F
:10378000C6010E94A7178091FF02869586958695AF
:103790000E94A00360E0C6010E940B0D99CCBB20E3
:1037A00099F0A11004C0802F0E94B50DDBCFF1E08D
:1037B000AF12D8CF8091FB02902F9823091791F276
:1037C000802B8093FB02CECFA110CCCF802F0E9404
:1037D000BF0D9091FB02802F8923882329F0802F31
:1037E000809589238093FB028091FC02902F98237F
:1037F000992309F4B7CF009508230093FC02B2CFB8
:10380000BB2029F025E02A1508F4ACCFCCCF34E05A
:103810003A1508F4A7CF802F0E94BF0DA3CFAA208E
:10382000D1F389E3E81209C09FEFA7EEB3E091500E
:10383000A040B040E1F700C000008E2D0E94D013E0
:1038400091CF812F869586958370882369F081308A
:1038500009F088CF8E2D912F9370B11002C080E0B7
:1038600090E00E94DA087ECF8E2D912F9370B110D8
:1038700002C080E090E00E94B40874CF6B2D8E2DC2
:103880000E9465126FCF812F8370811137C0B110F4
:103890002AC04E2D429546954770440F440F2E2D59
:1038A0002F70042E01C0220F0A94EAF79E2D90710A
:1038B000992341F08FE090E001C0880F4A95EAF724
:1038C000982F9095169516951370123091F0892FB8
:1038D000822B133031F08091FD02113039F0292B09
:1038E00082230E948E030E94A3083CCF822B892B47
:1038F000F8CF292B8091FD028227F3CFBB2069F1FD
:1039000010FFF1CF4E2D429546954770440F440F5E
:103910002E2D2F70042E01C0220F0A94EAF79E2D3F
:103920009071992341F08FE090E001C0880F4A9593
:10393000EAF7982F9095169516951370123099F016
:10394000892F822B133031F08091FE02113041F02B
:10395000292B82230E949103C6CF823020F2D2CF3E
:10396000822B892BF7CF292B8091FE028227F2CF61
:103970001F70BB2039F0812F0E9494038E2D0E946E
:10398000B50DB1CF8E2D0E94BF0D812F0E94A003D7
:10399000AACFE2EFEE16A9F1EE1588F0F0EFEF16E0
:1039A000D9F021EFE21609F443C0BB2009F467C047
:1039B000AA2009F461C08E2D0E94391394CF33EFF1
:1039C000E31631F184EFE81679F1B110F1CFA110CF
:1039D00065C0812F8F71DACFBB2081F094E09A15FA
:1039E00008F481CF1F7181E090E0012E01C0880FA3
:1039F0000A94EAF79091FE028927ACCFA5E0AA16B7
:103A0000EFCF812F8F71B110C1CF0E9494036BCF84
:103A100080E0BB2009F49ECF1F7181E0012E01C020
:103A2000880F0A94EAF796CF8091010382FD06C0C1
:103A3000812F8F71BB2009F4A9CFE7CFBB2089F07C
:103A40001F71812F0E9494038091010382FF07C0A0
:103A5000B8E01B9FC001112483608093FF02812F77
:103A6000D4CF81E00E944204E1E0EA1508F03BCFA8
:103A700082E00E94420437CF812F8F71C6CFAA20E7
:103A800009F4A7CFF9E3EF1209C02FEF37EE83E077
:103A9000215030408040E1F700C000008E2D0E9490
:103AA000D01321CFF801E851FC47E730F10508F0C9
:103AB000D6CBE255F24D0C94F22BF801E851FC47BD
:103AC000E730F105B0F31092ED02C80190578397EB
:103AD00008F08FCC84E090E00E94C22C9093010308
:103AE00080930003F801E150F047E232F10508F05D
:103AF000C3CBEB54F24D0C94F22B809143038031F5
:103B000078F480914203882359F0E09104032091D6
:103B1000030330913E0340913D0357E02E1301C053
:103B200008956E2F70E05E9FF0011124DF01AB5FFE
:103B3000BC4F14968C911497882361F111968C9147
:103B40001197831327C08C91841324C015968C91F0
:103B5000159781111FC012968D919C91A0913F03E2
:103B6000B09140038A1B9B0B883C910598F480918F
:103B700043038F70806180934303E55FFC4F808136
:103B80008F70806180838DE393E00E94A7170E946D
:103B900038040895FB013196E770C0CFADE0B0E086
:103BA000E4EDFDE10C949F2B8C0186E0F801DE0131
:103BB000189601900D928A95E1F7F8017080F580D2
:103BC000A280B38084819DE3892E93E0992E60903A
:103BD0004103611018C0882399F0FF2009F413C134
:103BE000C8010E943A0D882309F40DC187E0F8014D
:103BF000ADE3B3E001900D928A95E1F70E947D1D3F
:103C0000FF24F39453C0D090420320913F0330919E
:103C10004003A501421B530BDD2009F4C4C0483CFE
:103C2000510508F07AC0882359F380913E03C18082
:103C3000E0904303FFE0FE1508F459C0C81215C018
:103C400080913D03871111C0F1104BC08E2D8F70F4
:103C50008061809343038DE393E00E94A7178091D6
:103C60004303F8018683F12C21C0F1103AC040E0F3
:103C70006C2D872D0E94FE0A40E06C2D872D0E943E
:103C8000FE0AF82E8111EFCF888599850E942B0DB1
:103C9000292F22952F70903470F49F702230A0F05D
:103CA0009923B1F0F8019681903190F48F2D2D96E3
:103CB000EEE00C94BB2B2A5F2F70223068F0C80115
:103CC0000E94A717FD2CF2CF992311F0882371F3DE
:103CD000805E883058F3F3CF803F40F3815F8230BD
:103CE000F9CF80914303816080934303BCCFC81216
:103CF0003CC080913D03871138C0F11036C0F801F7
:103D0000E682C8010E94A71787E0F801ADE3B3E09F
:103D100001900D928A95E1F773CFE0904303FFE0A5
:103D2000FE1550F08DE393E00E94A71787E0F401A1
:103D300011928A95E9F797CF882309F461CF909182
:103D40003E03F8018181981310C080913D038711D3
:103D50000CC0F1100AC0E682C8010E94A71787E0D4
:103D6000F40111928A95E9F74BCFC8010E943A0DF0
:103D7000882309F448C0FF2009F445C0809143031B
:103D8000803208F433CF80913D0390913E039A83B3
:103D90008983BC82AB826D821E82EF82CE01019646
:103DA0000E94A71723CF483C510508F0BFCF8823B6
:103DB00009F426CFFF2039F190913E0381819813B9
:103DC00018C080913D03871114C08091430380FD8A
:103DD0009BCF803108F498CF8683807F803F09F4A1
:103DE00090CF8681982F907F905F8F70892B8683EC
:103DF00088CFC8010E943A0D8111F8CE809143030B
:103E0000816080934303C8010E94A717F9CEABE1FC
:103E1000B0E0EDE0FFE10C94AA2B4E8B5F8B688F36
:103E2000798F8A8F9B8F9111109202031D8A86E0F1
:103E3000FE017696DE011F9601900D928A95E1F7BC
:103E40008B89882329F061E0CE010F960E940B0D2B
:103E500087E0FE013F96DE01189601900D928A954B
:103E6000E1F7CE0108960E94CE1D81112BC087E09C
:103E7000FE013896DE01119601900D928A95E1F7C8
:103E800020910303409104038C858823D9F030E00E
:103E9000C90101968770992750E084179507E9F0CA
:103EA00097E0929FD001939FB00D1124AB5FBC4F60
:103EB000FE01319601900D929A95E1F780930303EC
:103EC0000E94380417E08091040390910303891342
:103ED00012C06B96E3E00C94C62B0E944214109221
:103EE00003031092040387E0EDE3F3E0DF011D928A
:103EF0008A95E9F7E7CF189FC00111248B5F9C4F8B
:103F00000E94CE1D882329F38091040390E001963E
:103F10008770992780930403D6CFA6E0B0E0E3E949
:103F2000FFE10C94A92B0E9492118C018091BA029E
:103F30009091BB028017910779F019821A820E9432
:103F40009211BC0149815A8180E090E00E94071FD4
:103F50001093BB020093BA022696E4E00C94C52BA2
:103F6000A9E1B0E0E6EBFFE10C949E2B1D861C86D8
:103F7000FE013E9688E0DF011D928A95E9F78DE10A
:103F8000E82E81E0F82E8E01045F1F4F92E2C92EC9
:103F900091E0D92E3801AA24A394B12C3DE1832EBF
:103FA00031E0932EF70181917F018F3F09F441C0E9
:103FB000F894E82FE295EF70F0E021A18F70A50151
:103FC00002C0440F551F8A95E2F7CA01922F982B21
:103FD00091A392A18095892382A3789400C0E5E102
:103FE000F1E031E0512C21912F3F09F490C0A22F34
:103FF000A295AF70A05EB0E08C9190E02F7002C0EF
:10400000959587952A95E2F78170811180C0832F5D
:10401000582A330F8E169F0631F7F70131978081AA
:104020008F3F11F00E94700650EA5A95F1F7D801BF
:104030005C920F5F1F4FCE14DF0409F0B3CF4AE04C
:1040400050E0B3018CE692E00E949E2C0091770232
:1040500010E00C561D4F892B09F45BC08AE0F30178
:10406000ACE6B2E001900D928A95E1F781E0809391
:10407000DF010E9492119093DE018093DD01809117
:10408000B802882309F49DC01A821982FE01339672
:1040900083E0DF011D928A95E9F78091E2018A3081
:1040A00008F059C04CE35EE0FE0131967F01BF018C
:1040B000C8010E94AE0B6701882309F470C049EB68
:1040C0005EE0B701C8010E94AE0B882309F467C007
:1040D00045E05FE0B701C8010E94AE0B882309F4F8
:1040E0005EC01092E2018091760290E045E050E0DF
:1040F000B6018C569D4F0E949E2C21E02093DC013E
:10410000892B09F03FC06996EFE00C94BA2B80E050
:104110007FCF8091DF01882309F4B1CF8091DD0149
:104120009091DE010E943917059708F4A8CF45E069
:1041300050E06CE672E0C8010E949E2C892B41F091
:1041400085E0ECE6F2E0D80101900D928A95E1F766
:104150001092DF0194CF8091DA019091DB010E94EF
:1041600039178838934108F09DCF8091DC0188236E
:1041700051F285E0FE013196DF011D928A95E9F743
:104180001092DC01A0917602B0E0AC56BD4F85E004
:10419000FE01319601900D928A95E1F7B4CF80919E
:1041A000E2018F3F39F40E9492119093DB018093DA
:1041B000DA01DBCF8F5F8093E2018A3008F493CF7E
:1041C000F2CF85E0F801A9E4B3E001900D928A9561
:1041D000E1F789E493E00E94530A80934803C0907A
:1041E0004E03D0904F03E0905003F0905103809124
:1041F000D6019091D701A091D801B091D901C816EC
:10420000D906EA06FB06D1F0C092D601D092D701BA
:10421000E092D801F092D9010E9426096E8B7F8B23
:10422000888F998FC61AD70AE80AF90AC092B40291
:10423000D092B502E092B602F092B7028BE0E2E5CE
:10424000F3E0DE01119601900D928A95E1F78091DD
:10425000520386958695F0905303E0905403D090D6
:10426000550300915B0310915C0310925C031123D2
:1042700009F449CF10FF11C029812370982F990F9D
:10428000990F922B998390FF1CC09091F20291603C
:104290009093F20260E00E94C51111FF06C020E079
:1042A0004D2D6E2D8F2D0E94871012FF04C000230C
:1042B00059F00E94A91113FF26CF81E080938C0250
:1042C00022CF0E94A207E9CF0E949B07F4CFCDB76F
:1042D000DEB7A9970FB6F894DEBF0FBECDBF85B786
:1042E000806885BF85B7806885BF84B7877F84BFB6
:1042F0000FB6F894A8958091600088618093600063
:10430000109260000FBE80E890E00FB6F8948093A2
:104310006100909361000FBE8EE696E09093CD0110
:104320008093CC010E94340A0E94A30A8091E2008B
:1043300084608093E200789480919E02882399F0B3
:104340008091E9001091EC001795112717958F7057
:10435000182B1092E9008091E80083FD0E947F14E1
:104360001F701093E90082E084BD93E095BD9AEF41
:1043700097BD80936E001092B4021092B502109215
:10438000B6021092B7020E94600D811102C00E9415
:10439000930C8091D80080618093D8002AE12A95FF
:1043A000F1F700C08091D90080FD0CC10E94340A51
:1043B00010929E021092B8021092B902109222013D
:1043C00086E08093100188E08093110180912201A2
:1043D000811124C085E0E5E5F1E0DE0191960190D0
:1043E0000D928A95E1F785E0FE01B196ADE1B1E06D
:1043F00001900D928A95E1F788E0EBE5F1E0DE01AE
:10440000119601900D928A95E1F788E0FE013196B0
:10441000A5E1B1E001900D928A95E1F7809122012A
:1044200090E0811101C095E09093770285E0891BAF
:10443000809376020DE111E0B2E2EB2EB1E0FB2EAB
:10444000D8018D918D018F3F11F00E947006E0160A
:10445000F106B1F705E111E0ADE1EA2EA1E0FA2E97
:10446000F80181918F018F3F11F00E947006E016D4
:10447000F106B1F78AE0E4E9F2E0DF01282F1D92AE
:104480002A95E9F7ECE6F2E0DF011D928A95E9F75B
:1044900080E090E00E94C22C863E9E4F21F40E9454
:1044A000600D811168C066EE7EEF80E090E00E94B2
:1044B000F62C60E082E090E00E94D82C81E08093AE
:1044C000FD0261E083E090E00E94D82C60E074E19E
:1044D00084E090E00E94F62C60E086E090E00E948C
:1044E000D82C60E087E090E00E94D82C40E050E0BB
:1044F000BA0188E090E00E94EA2C60E084E290E05B
:104500000E94D82C60E087E190E00E94D82C60E007
:104510008CE090E00E94D82C60E08DE090E00E945A
:10452000D82C19821A821B821C821D821E821F8235
:10453000188648E050E068E170E0CE0101960E94E4
:10454000C82C40E050E0BA0180E290E00E94EA2CE2
:1045500080E00E94750C0E94930C40E050E0BA018C
:104560008FE090E00E94EA2C40E050E0BA0183E145
:1045700090E00E94EA2C82E090E00E94B42C8093AC
:104580007B0284E090E00E94C22C90930103809310
:1045900000030E94B01FEFEFF6E721E0E150F0408A
:1045A0002040E1F700C000000E94B01F80919402FB
:1045B00080FF17C06FEF7FEF80E090E00E94F62C45
:1045C0000E94760981E08093B8028093B9028093BB
:1045D00022011092100186E0809311010E9462294D
:1045E000F5CE83E090E00E94B42C0E948E0380916F
:1045F000780281119CC088E090E00E94BC2C6B0185
:104600007C0184E290E00E94B42C282F30E040E04E
:1046100050E060E070E080E090E000E20E94FF2B5C
:10462000F22FA32EB42EB52FA62FE72F97018601C8
:1046300040E050E0BA01FC29A12AB22AB32BA42BF6
:10464000E52B862B972BF093F202A092F302B09207
:10465000F402B093F502A093F602E093F702809380
:10466000F8029093F9022091F10223602093F10265
:10467000F43008F04CC025E02093F2021092F302CF
:104680002FEF2093F40228EC2093F5021092F6020B
:1046900025E030E04FEF58EC60E07E2F0E942D10B7
:1046A00088E090E00E94BC2C6B017C0184E290E0E9
:1046B0000E94B42C282F30E040E050E060E070E031
:1046C00080E090E000E20E94FF2B5901B42FA52F5B
:1046D000F62FE72F9701860140E050E0BA01AC28A1
:1046E000B12AB22BA32BF42BE52B862B972BA09270
:1046F000F202B092F302B093F402A093F502F093A9
:10470000F602E093F7028093F8029093F9020E9478
:1047100016070E949B078091F20280FF05C060E0AF
:10472000869586950E94C51181E0809378028091DC
:10473000B802811103C082E30E94D32A83E291E090
:104740009093BD028093BC02E8E1CE2ED12CFEE90D
:10475000AF2EF2E0BF2E7724739466246394809189
:104760009E02853049F480919E02853009F451C043
:104770000E9442140E94A3080E94B01F0CE712E09E
:1047800074E9E72E72E0F72E26E832E0D701F8014F
:1047900091918D912E173F0709F489C09817C1F3A5
:1047A0002090B802912CD7018D907D01F8013190B5
:1047B0008F01381439F13824512C44244394832D2B
:1047C00084218823B9F02220A9F059829A820E947C
:1047D00092119C838B836D8291E0882D84218111BD
:1047E00001C090E09E8349815A816B817C818D81DB
:1047F0000E94071F5394440CF8E05F12E0CFF801C9
:104800003197808293942AE09212CDCF0E9443097F
:1048100052C080919E02843011F11092790260E4BE
:104820000FB6F894A895C09260000FBE6093600028
:1048300083B7817F846083BF83B7816083BF7894AF
:10484000889583B78E7F83BF0FB6F894A895809123
:104850006000886180936000109260000FBE8091BC
:104860007A02882309F47FCF0E94B01FE4E9F2E0C6
:104870008191811104C0AE16BF06D1F774CF80E1DB
:1048800089BD82E189BD09B400FEFDCF8091D800C9
:104890008F7D8093D8008091E00082608093E0005B
:1048A0008091E00081FDFCCF0E9442145CCF981300
:1048B00077CF0E948D1F8091F002882309F465C094
:1048C0009091EF02E091F202E695E695E91BE09304
:1048D0008B02923009F0DDC0F0E0E65DF94FE49123
:1048E0000E2F10E061EB862E67E0962E80918C02F1
:1048F000882361F010928C020E949E1190938A028C
:104900008093890210928E0210928D020E949E1155
:104910009C018091890290918A02A901481B590B40
:104920004F3F5F4790F5409188024423B1F01092C9
:1049300088024091860250918702241B350B2F3F3D
:104940003F4758F4405D5A4850938702409386028F
:104950002091F10228602093F102E0908D02F09006
:104960008E02800F911F90938A028093890289E8BA
:1049700092E0F401099580918D0290918E02892B2D
:1049800021F4EF2811F07092880286E0E7EEF2E061
:10499000DE01119601900D928A95E1F7F090E80200
:1049A0000091E9021091EA029090EB02E090EC0293
:1049B0001092E9021092EA021092EB021092EC02BD
:1049C000812F802B882371F0809191029091920227
:1049D0000E9439179C018091E502811197C0232B19
:1049E00009F09AC0892D8E29882371F080918F0259
:1049F000909190020E9439179C018091E4028111EC
:104A0000C4C0232B09F0C7C08091E802F81216C079
:104A10008091E902882311F0801310C09091EA027E
:104A2000992311F091130AC02091EC02211106C0C4
:104A30002091EB02211102C0892B81110E943D12AD
:104A400086E0FE013196A7EEB2E001900D928A95C4
:104A5000E1F70E94A30890919302891721F08093B7
:104A600093020E94260980919E02843009F077CE3D
:104A700083E08093E9008091E80082FF70CE80910E
:104A8000E80085FDC1C08091E8008B778093E80045
:104A900066CE963059F4F0E0E95DF94FE4910E2FBF
:104AA00010E05BE8852E57E0952E20CF993061F419
:104AB000E695F0E0EC5DF94FE4910E2F10E045EC47
:104AC000842E47E0942E12CF04EF11E023E0822ED3
:104AD00028E0922E993109F409CF9A3181F48E2F72
:104AE00063E00E94D22BE92FF0E0EF5DF94FE491F3
:104AF0000E2F10E03DE5832E3FE0932EF7CE00ED24
:104B000017E099E8892E96E0992EF0CE25313105EF
:104B100008F468CF8F3F19F08F5F8093E502002380
:104B200059F00E9459089FEF10160CF491E0899FEC
:104B3000802D11248093E902112359F00E94590815
:104B400091E011160CF09FEF899F802D1124809326
:104B5000EA028091E902882309F444CF8090EA02B6
:104B6000882009F43FCF0E944B08811101C081E0E9
:104B70008093E902882D0E944B08882319F08093C6
:104B8000EA0230CF7092EA022DCF2135310508F4C8
:104B90003BCF8F3F19F08F5F8093E402992059F04B
:104BA0000E947E089FEF19140CF491E0899F802DDC
:104BB00011248093EB02EE2059F00E947E0891E0D0
:104BC0001E140CF09FEF899F802D11248093EC021E
:104BD0008091EB02882309F417CFE090EC02EE20DD
:104BE00009F412CF0E944B08811101C081E080932B
:104BF000EB028E2D0E944B08882319F08093EC0263
:104C000003CF7092EC0200CF0E94030A882379F050
:104C10008091E8008B778093E8008981EFEFE80FBF
:104C2000E33190F5F0E0E952F24D0C94F22B80E282
:104C3000E82EF12C8E010F5F1F4F8091E80085FD5B
:104C40000AC08091E8008B778093E8000E94030AF5
:104C5000882399F3DDCF8091F100D8018C93B1E0E6
:104C6000EB1AF108E114F10499F20F5F1F4FE5CF41
:104C70001A828CE08B831AC08A81833049F138F420
:104C8000813061F08230D9F08FEF89830FC084309A
:104C9000D9F71B821C821D821E8208C00E94260931
:104CA0000E94F82B6B837C838D839E8340E250E0CF
:104CB000BE016F5F7F4F82E00E944B0B50CD88E2B8
:104CC00090E00E94B42C1B821C821D828E83EECF4A
:104CD0008B8190E0DE0114968A3091053CF7FC014F
:104CE000FF27EC56FD4F20812D930196F5CF8A8149
:104CF000823049F0853041F68091F20280FF14C085
:104D00000E94A207D3CF8B819C81AD81BE818EA3EF
:104D10009FA3A8A7B9A7BC01CD010E94F82B88E2E8
:104D200090E00E94D82CC2CF81608093F20260E0B4
:104D3000869586950E94C511B9CF4C816B818A8179
:104D40000E94A30C9827892798279E838D83AECF36
:104D50002D813E813227232732274C816B818A8126
:104D60000E94FF0BA3CF0E94260CA0CF9A81923005
:104D700009F08ACF8830E1F1893009F465C08B8170
:104D8000833091F1B0F48130E9F0823009F08ECFB8
:104D90008C81882309F4B4CF8091F20281608093E2
:104DA000F20260E0869586950E94C51160E08C81D4
:104DB000C1CF843009F07ACF20E04091F5026D81B7
:104DC0008C810FC08C81A8EC8A9FC00111246FEFE9
:104DD00070E00E94872B462F20E06091F4028091C2
:104DE000F3020E94871062CF8C818093F6025ECF1F
:104DF0008B81833031F168F48130A9F0823009F081
:104E000055CF8091F20280FF1AC0869586958C83DB
:104E10004DCF843009F04ACF8091F3028C8380918A
:104E2000F4028D8343CF8091F502BFEF8B9FC001C9
:104E3000112468EC70E00E94872B6C8337CF80E0F0
:104E4000E6CF8091F602E3CF2091F2023091F30297
:104E50004091F4025091F5026091F6027091F702D0
:104E60008091F8029091F9020E942D101FCF80E1ED
:104E70008A831CCF81E08A8387E5FCCE8A809B8071
:104E80009824892498248C817401E80EF11C8E01E9
:104E90000B5F1F4FE814F90409F408CF80E0E7E541
:104EA0008E16E1E09E0628F4C40187559D4F0E94AE
:104EB000B42CD8018D938D01BFEF8B1A9B0AEACFDA
:104EC0000A811B81102701271027FE0131964F010F
:104ED0008C817F01E80EF11CE814F90409F4E6CE98
:104EE0000735F1E01F0740F4D40114966C91C80116
:104EF00087559D4F0E94D82C0F5F1F4FBFEF8B1A15
:104F00009B0AEACF0E94650CD1CE84E0B1CF0A8122
:104F10001B811027012710278C814801880E911CC6
:104F20007E01E5E0EE0EF11C8016910609F4BECE7E
:104F300080E00038F2E01F0720F4C80189960E9443
:104F4000B42CD7018D937D010F5F1F4FEDCF0A81E8
:104F50001B81102701271027FE0131964F018C81FC
:104F60007F01E80EF11C8E149F0409F49FCE0038D7
:104F7000F2E01F0738F4D40114966C91C8018996A9
:104F80000E94D82C0F5F1F4FBFEF8B1A9B0AEBCFED
:104F900078941F921FB61F9211248F939F93AF9303
:104FA000BF938091A7029091A802A091A902B0910D
:104FB000AA020196A11DB11D8093A7029093A80299
:104FC000A093A902B093AA02BF91AF919F918F9134
:104FD0001F901FBE1F9018951F920F920FB60F9231
:104FE00011242F933F934F935F936F937F938F93EE
:104FF0009F93AF93BF93EF93FF938091E10082FF64
:1050000009C08091E20082FF05C08091E1008B7FA2
:105010008093E1008091DA0080FF24C08091D80065
:1050200080FF20C08091DA008E7F8093DA0080912B
:10503000D90080FF9BC080E189BD82E189BD09B4B0
:1050400000FEFDCF81E080939E028091E6018111F8
:1050500009C00E94340A0E94A30A8091E200846081
:105060008093E2008091E10080FF17C08091E20010
:1050700080FF13C08091E2008E7F8093E2008091D8
:10508000E20080618093E2008091D800806280938A
:10509000D80019BC85E080939E028091E10084FFD6
:1050A00029C08091E20084FF25C080E189BD82E1B2
:1050B00089BD09B400FEFDCF8091D8008F7D80931B
:1050C000D8008091E1008F7E8093E1008091E20022
:1050D0008F7E8093E2008091E20081608093E20005
:1050E0008091E501882309F447C084E080939E0203
:1050F00080919E028091E10083FF27C08091E200B1
:1051000083FF23C08091E100877F8093E10082E0EC
:1051100080939E021092E5018091E1008E7F809342
:10512000E1008091E2008E7F8093E2008091E200B6
:1051300080618093E20042E060E080E00E946C0ABF
:105140008091F00088608093F000FF91EF91BF9113
:10515000AF919F918F917F916F915F914F913F910F
:105160002F910F900FBE0F901F90189519BC1092A1
:105170009E021092E60176CF8091E30087FF02C085
:1051800083E0B4CF81E0B2CF1F920F920FB60F929F
:105190001124FF920F931F932F933F934F935F938D
:1051A0006F937F938F939F93AF93BF93CF93DF932F
:1051B000EF93FF9309EE10E0F8018081C091EC00BD
:1051C000C795CC27C7958F70FC2EF82A1082C0EFA8
:1051D000D0E08881877F888378940E947F14F801CB
:1051E0001082888188608883CF2DCF70C083FF9123
:1051F000EF91DF91CF91BF91AF919F918F917F916F
:105200006F915F914F913F912F911F910F91FF905F
:105210000F900FBE0F901F901895FF920F931F9342
:10522000CF93DF93182FEB011092BC0084EA809398
:10523000BC000E949211082FF92E8091BC0087FFBC
:1052400028C08091B900887F883029F08091B9000A
:10525000887F8031A1F51093BB0084E88093BC0067
:105260000E949211182F092F8091BC0087FF1FC048
:105270002091B900287F80E090E0283199F081E00A
:1052800090E0203411F480E090E0919581959109AF
:1052900009C0802F9F2D0E943917C817D90768F6BB
:1052A0008EEF9FEFCDB7DEB7E5E00C94C42B812FD6
:1052B000902F0E943917C817D907B0F6F1CF8FEF9A
:1052C0009FEFF0CF1092B90088E48093B800089562
:1052D0000F931F93CF93DF93EB018093BB0084E880
:1052E0008093BC000E949211182F092F8091BC005E
:1052F00087FF11C02091B900287F81E090E028321B
:1053000011F480E090E0919581959109DF91CF9122
:105310001F910F910895CF3FDC0741F3812F902F0C
:105320000E943917C817D90708F78EEF9FEFEECF05
:105330000F931F93CF93DF93EC0184EC8093BC0019
:105340000E949211182F092F8091BC0087FF08C07E
:105350008091BB0090E0DF91CF911F910F91089554
:10536000CF3FDC0789F3812F902F0E943917C81790
:10537000D90750F78EEF9FEFEECF0F931F93CF9388
:10538000DF93EC0184E88093BC000E949211182FF7
:10539000092F8091BC0087FF08C08091BB0090E07E
:1053A000DF91CF911F910F910895CF3FDC0789F3D3
:1053B000812F902F0E943917C817D90750F78EEF09
:1053C0009FEFEECFA0E0B0E0E8EEF9E20C949F2B67
:1053D000682E962E5A01690178010E949211782E4A
:1053E000892E0431110530F10F3F100731F1C8014A
:1053F00064E170E00E94872B162F072F612F702F1A
:10540000862D0E940D29EC0197FF19C0FFEFEF16C2
:10541000FF06A1F3872D982D0E943917E816F9068B
:1054200068F784E98093BC00CE01CDB7DEB7EEE02B
:105430000C94BB2B11E000E0E1CF15E0FCCFB701ED
:10544000892D0E946829EC018501CA0CDB1C0C1512
:105450001D0539F3D7FDE5CFB701F80181918F0123
:105460000E946829EC01F3CFA0E0B0E0EAE3FAE2A1
:105470000C949F2B982E862E5A01690178010E9468
:1054800092113C010431110550F10F3F100751F109
:10549000C80164E170E00E94872B162F072F612F4F
:1054A000702F892D0E940D29EC0197FF1DC0FFEF81
:1054B000EF16FF06A1F3C3010E943917E816F9069B
:1054C00070F784E98093BC00CE011C161D0614F40D
:1054D00080E090E0CDB7DEB7EEE00C94BB2B11E09E
:1054E00000E0DDCF15E0FCCFB701882D0E946829D0
:1054F000EC0197FDE6CF689490F80E949211782E07
:10550000892E84E1E816F10490F1EFEFEE16FE0625
:1055100089F1C70164E170E00E94872B162F072FE5
:10552000612F702F892D0E940D29EC0197FF0BC070
:10553000FFEFEF16FF06A1F3872D982D0E94391774
:10554000E816F90668F781E0C81AD1088601C11487
:10555000D10491F4D7FDB5CFC7010E94BD29EC015C
:1055600097FDAFCFAC0CBD1CF5018083AACF11E035
:1055700000E0D6CF15E0FCCFD7FDA3CF812C912C36
:105580003801C7010E949829EC0197FD9ACFF501D7
:10559000E80DF91D8083EFEF8E1A9E0A63018016D5
:1055A000910678F3D7CF8093BA0085EC8093BC0046
:1055B00008951F920F920FB60F9211242F933F93CD
:1055C0004F935F936F937F938F939F93AF93BF930B
:1055D000CF93DF93EF93FF938091B900982F987F3B
:1055E0009038F1F038F4992309F48EC0903699F090
:1055F00021E037C0887E883AD9F7E0914503F0E092
:10560000E95BFC4F80818093BB00809145038F5FF5
:1056100080934503EDCF1092440310924603E8CFE8
:105620008091440381113AC08091BB00809345036F
:105630008091450321E0863118F01092450320E067
:1056400081E0809344038091450390E031E04091F4
:105650002E0150912F014817590709F030E030937F
:1056600046038091BC0090E4299F90011124822B75
:1056700085688093BC00FF91EF91DF91CF91BF913E
:10568000AF919F918F917F916F915F914F913F91DA
:105690002F910F900FBE0F901F901895E09145032A
:1056A000F0E08091BB00E95BFC4F80838091450373
:1056B0008F5F8093450380914603882309F498CF38
:1056C000C0919301D0919401A88188E0A802D001F3
:1056D0001124A35DBE4F1696ED91FC91179730975C
:1056E00009F486CF14962D913C9115972C0F3D1FF0
:1056F00011966D917C9112976C0F7D1F13964C91B2
:1057000013978C91099574CF1092BC0071CFAA1B8E
:10571000BB1B51E107C0AA1FBB1FA617B70710F09C
:10572000A61BB70B881F991F5A95A9F780959095CE
:10573000BC01CD0108952F923F924F925F926F92DC
:105740007F928F929F92AF92BF92CF92DF92EF9211
:10575000FF920F931F93CF93DF93CDB7DEB7CA1B92
:10576000DB0B0FB6F894DEBF0FBECDBF09942A88BD
:10577000398848885F846E847D848C849B84AA8465
:10578000B984C884DF80EE80FD800C811B81AA81F2
:10579000B981CE0FD11D0FB6F894DEBF0FBECDBFBD
:1057A000ED010895991B79E004C0991F961708F040
:1057B000961B881F7A95C9F78095089597FB072E49
:1057C00016F4009407D077FD09D00E94872B07FCC0
:1057D00005D03EF4909581959F4F08957095619501
:1057E0007F4F0895EE0FFF1F0590F491E02D09946F
:1057F0006927962769277827872778270895002E15
:10580000083090F0982F872F762F652F542F432F35
:10581000322F22270850F4CF220F331F441F551F69
:10582000661F771F881F991F0A95B2F7002D0895EC
:1058300097FD1094002E083098F00850232F342F35
:10584000452F562F672F782F892F912DF4CF159440
:1058500097958795779567955795479537952795A8
:105860000A95AAF71124002D08958F929F92AF9266
:10587000BF92CF92DF92EF92FF92CF93DF93EC0132
:10588000688179818A819B81611571058105910506
:1058900021F464E279ED8BE597E02DE133EF41E00F
:1058A00050E00E940C2D49015A019B01AC01A7EA6E
:1058B000B1E40E942B2D6B017C01ACEEB4EFA5018D
:1058C00094010E94392DDC01CB018C0D9D1DAE1D74
:1058D000BF1DB7FF03C00197A109B0488883998312
:1058E000AA83BB839F77DF91CF91FF90EF90DF90EA
:1058F000CF90BF90AF909F908F9008950E94352CCD
:10590000089580E091E00E94352C0895B0E0A0E079
:105910008093000190930101A0930201B0930301D1
:105920000895FC014150504030F001900616D1F727
:105930003197CF010895882799270895FB01DC014D
:1059400004C08D910190801921F441505040C8F756
:10595000881B990B0895FB01DC0102C001900D9298
:1059600041505040D8F70895F999FECF92BD81BDBE
:10597000F89A992780B50895A6E1B0E044E050E098
:105980000C94FE2CA8E1B0E042E050E00C94FE2C18
:10599000DC01A40FB51F4150504048F0CB01840FEB
:1059A000951F2E910E94D92C41505040D0F7089558
:1059B000262FF999FECF92BD81BDF89A019700B4C8
:1059C000021639F01FBA20BD0FB6F894FA9AF99A68
:1059D0000FBE08950396272F0E94D92C0E94D82C21
:1059E000252F0E94D92C242F0C94D92C0196272FD7
:1059F0000E94D92C0C94D82CDC01CB01FC01F99924
:105A0000FECF06C0F2BDE1BDF89A319600B40D920A
:105A100041505040B8F70895052E97FB1EF40094AE
:105A20000E94232D57FD07D00E943E2D07FC03D076
:105A30004EF40C94232D50954095309521953F4F71
:105A40004F4F5F4F089590958095709561957F4F6A
:105A50008F4F9F4F08950E94602DA59F900DB49F7A
:105A6000900DA49F800D911D11240895B7FF0C94F3
:105A70002B2D0E942B2D821B930B0895A1E21A2E31
:105A8000AA1BBB1BFD010DC0AA1FBB1FEE1FFF1FE2
:105A9000A217B307E407F50720F0A21BB30BE40B32
:105AA000F50B661F771F881F991F1A9469F7609579
:105AB0007095809590959B01AC01BD01CF01089533
:105AC000A29FB001B39FC001A39F700D811D11243F
:105AD000911DB29F700D811D1124911D0895F894A0
