:100000000C94F6020C9413030C9413030C94130336
:100010000C9413030C9413030C9413030C94130308
:100020000C9413030C9413030C9414230C94EC23DE
:100030000C94E80F0C9413030C9413030C94130307
:100040000C9413030C9413030C9413030C941303D8
:100050000C9413030C94F0220C9413030C941303CC
:100060000C9413030C9413030C9413030C941303B8
:100070000C9413030C9413030C9413030C941303A8
:100080000C9413030C9413030C9413030C94130398
:100090000C9401260C9413030C9413030C94130377
:1000A0000C9413030C9413030C941303050109021D
:1000B000A10185020901A1000509190129081500FE
:1000C0002501950875018102050109300931158165
:1000D000257F95027508810609381581257F9501D0
:1000E00075088106050C0A38021581257F95017572
:1000F000088106C0C005010980A101850319012AF4
:10010000B700150126B700950175108100C0050CD8
:100110000901A101850419012AA002150126A002E6
:10012000950175108100C005010906A10105071997
:10013000E029E715002501950875018102950175F3
:100140000881010507190029FF150026FF00950603
:100150007508810005081901290515002501950577
:1001600075019102950175039101C009023B0002DE
:100170000100A0FA09040000010301010009211196
:100180000100012244000705810308000109040160
:10019000000103000000092111010001227B00077A
:1001A000058203200001120100020000000818CAA5
:1001B0001811010001020001180348006F006E00D1
:1001C000650079004C006F006300750073007400D7
:1001D000000022034500720072006F0072003400BC
:1001E0003200470065006E00650072006100740017
:1001F0006F00720000000403090422232526282929
:100200002A2C2D2F3032333536383A3B3D3E404292
:10021000434547494A4C4E5051535557595A5C5ED5
:100220006062646668696B6D6F71737577797B7DE9
:100230007F81838587898A8C8E90929496989A9CE8
:100240009E9FA1A3A5A7A8AAACAEAFB1B3B4B6B800
:10025000B9BBBCBEBFC1C2C3C5C6C7C9CACBCCCD62
:10026000CED0D1D2D2D3D4D5D6D7D7D8D9D9DADA3D
:10027000DBDBDBDCDCDCDCDCDDDDDDDDDCDCDCDCBD
:10028000DCDBDBDBDADAD9D9D8D7D7D6D5D4D3D2F1
:10029000D2D1D0CECDCCCBCAC9C7C6C5C3C2C1BFCF
:1002A000BEBCBBB9B8B6B4B3B1AFAEACAAA8A7A533
:1002B000A3A19F9E9C9A98969492908E8C8A8987EF
:1002C0008583817F7D7B79777573716F6D6B6968CD
:1002D000666462605E5C5A5957555351504E4C4AA1
:1002E0004947454342403E3D3B3A3836353332304C
:1002F0002F2D2C2A292826252322FFAA7F554000AE
:1003000001010101010101010102020202020202D6
:1003100002020303030303030303040404040404A9
:10032000040505050505060606060607070707076F
:1003300008080808090909090A0A0A0B0B0B0C0C22
:100340000C0D0D0D0E0E0E0F0F0F101011111112BE
:100350001213131414151516161717181819191A3D
:100360001A1B1B1C1D1D1E1E1F20202122222324A0
:1003700024252626272829292A2B2C2D2D2E2F30DF
:10038000313232333435363738393A3B3C3D3E3FF3
:10039000404142434445464748494A4C4D4E4F50E0
:1003A000515354555658595A5B5D5E5F616264659E
:1003B0006668696B6C6D6F7072737577787A7B7D28
:1003C0007E8082838587888A8C8E8F91939596987C
:1003D0009A9C9EA0A2A3A5A7A9ABADAFB1B3B5B798
:1003E000BABCBEC0C2C4C6C9CBCDCFD1D4D6D8DB6F
:1003F000DDDFE2E4E7E9EBEEF0F3F5F8FAFDFF1EEE
:100400000F05643214783C1E1E140A0529001E00D4
:100410001F00200021002200000000002B0014001B
:100420001A00080015001700000000003900040041
:100430001600070009000A0000000000E1001D008E
:100440001B0006001900050000000000E000E300AA
:10045000E20022522C0000000000000023002400D3
:100460002500260027002D002E002A001C00180061
:100470000C00120013002F00300031000B000D00A3
:100480000E000F003300340028000000110010009F
:10049000360037003800E50052004C0000002C0008
:1004A0002152E6006500500051004F0035003A002F
:1004B0003B003C003D003E000000000020780100B1
:1004C00027780100010001000000000001002278EF
:1004D00028782178010001000000000001000100DF
:1004E0000100010001000100000000000100010006
:1004F0000100010001000000000000003F0040007A
:10050000410042004300440045004C00010001004E
:10051000010001000100010001000100A90001002B
:10052000010001000100010001000000AA00A80074
:10053000BC00BB000100D100CD00D2000000AE0025
:10054000010001000100CF00CE00D0000100010039
:100550000100010001000100000000000100010095
:100560000100010001000100000000000100010085
:100570000100010001000100000000000100010075
:100580000100010001000100000000000100010065
:100590000100010001000000000000002E003800F2
:1005A00025022D00010001000100010024002500AA
:1005B00026002E020100010001000100210022009E
:1005C00023002E0201000100010000001E001F0098
:1005D00020002800010001000100010000002700A8
:1005E00037002800010001000100010011241FBE96
:1005F000CFEFDAE0DEBFCDBF23E0ACEBB1E001C06E
:100600001D92A935B207E1F711E0A0E0B1E0E0EFFB
:10061000F1E502C005900D92AC3BB107D9F70E94FD
:10062000881E0C9490280C9400009093F8028093FC
:10063000F70208959093FA028093F902089521E059
:1006400030E002C0220F331F8A95E2F78091F90251
:100650009091FA02822B932B0E941A03089521E0B5
:1006600030E002C0220F331F8A95E2F720953095C3
:100670008091F9029091FA02822393230E941A0337
:1006800008959A3080F5883070F528E0929FF00147
:100690001124E80FF11D877041E001C0440F8A95D5
:1006A000EAF783E0F695E7958A95E1F7EE0FFF1FED
:1006B000EE0FFF1FEA54FD4F80E090E070E0519193
:1006C000DF0111979B01082E02C0369527950A94E9
:1006D000E2F7217021952527242325272C930196C5
:1006E0008430910561F708959A3070F5883060F58F
:1006F00028E0929FF0011124E80FF11D982F9770C8
:1007000083E0F695E7958A95E1F7EE0FFF1FEE0F70
:10071000FF1FEA54FD4F40E050E080E0219130E0BF
:10072000092E02C0369527950A94E2F721703327E7
:10073000042E01C0220F0A94EAF7822B4F5F5F4F0D
:100740004430510559F7089580E0089580910003E1
:100750009091FF02981301C008958F5F8770FACFC0
:100760009091FB02809589238093FB02282F2770AC
:1007700021110DC0891759F09091FD0292FF07C019
:100780008695869586950E942F031092FB02089508
:10079000982F90958091F40289238093F402089514
:1007A0007A30C8F46830B8F48330C0F4E72FF0E052
:1007B0009AE0899FE00DF11D112483E0EE0FFF1FE9
:1007C0008A95E1F7E60FF11DEE0FFF1FE45FFB4F87
:1007D00085919491089580E090E0089581E0FCCFA8
:1007E000803E9105D1F1C8F48133910509F47FC0B1
:1007F00048F48932910509F46FC08A32910509F4F1
:100800007DC0089589339105E1F082389105C9F0E2
:100810008533910509F45BC00895843E9105D1F1BB
:1008200048F4823E910531F1833E910541F181EE1C
:1008300090E00895863E9105C1F1873E9105E1F172
:1008400008952091FC022370211165C02091FD02C2
:1008500023FF14C089E290E008952091FC0220FD5E
:1008600043C03091FD0230FF09C024FF4EC080E03C
:1008700090E008952091FC0222FDF7CF0895209189
:10088000FC0222FD45C03091FD0230FD44C024FF32
:10089000F5CFEDCF2091FD0221FFF0CF8091FC023A
:1008A00084FDE5CF87EE90E008952091FC0223FFC0
:1008B000E5CF24FDDCCFF6CF2091FC0223FD2EC036
:1008C0003091FD0231FFE3CF84EE90E00895209156
:1008D000FC0225FFD3CFBECF2091FC0225FD21C015
:1008E0002091FD0223FFCACF89E390E00895209173
:1008F000FC0226FFC3CF8AE290E008952091FC021B
:1009000026FFBCCF81E390E0089583EE90E0089548
:1009100082EE90E0089580EE90E0089586EE90E0FB
:10092000089585E390E0AACF9091FC0292FF10C059
:1009300041E0282F2471243009F040E031E0282FD5
:100940002871283009F030E0431711F02CE082279D
:1009500093FF10C041E0282F2471243109F040E0BA
:1009600031E0282F2871283109F030E0431711F0C9
:100970002CE082273091FD0230FF10C051E0282F7B
:100980002171213009F050E041E0282F28712830F2
:1009900009F040E0541711F029E0822731FF10C020
:1009A00041E0282F2171213109F040E031E0282F6A
:1009B0002871283109F030E0431711F029E082272F
:1009C00094FD877E08951F93CF93DF930E94F003D9
:1009D000EC01811522E5920708F053C0811540E52E
:1009E000940708F0DDC0803E9105F8F48D3C910538
:1009F00008F0AEC0883A910580F4853A910508F078
:100A000099C08130910521F00497813A910550F405
:100A1000CE01DF91CF911F910895885A91094B978C
:100A200008F48BC0C0E0D0E0F3CF811550E4950707
:100A3000F8F4C11580E2D80708F0CBC0C83ED10554
:100A400038F3CE019A9581159F4160F78D2F0E9452
:100A50009404182FCE0199270E94F003212F30E033
:100A6000322F2227E901CC27DF71C82BD92BD0CF19
:100A700099270E94F003CC27DF70C82BD92BD06AAE
:100A8000C7CF803842E59407C8F5803652E5950710
:100A900008F067C0C03482E5D807B0F08C2F869587
:100AA0008695877020E2829FC0011124C37021E0E7
:100AB00030E0A90102C0440F551FCA95E2F7EA01D0
:100AC000C82BD92BDC68A4CFC03252E5D50708F07B
:100AD00041C08C2F8695869520E2829FC00111240B
:100AE000C37021E030E0A90102C0440F551FCA9530
:100AF000E2F7EA01C82BD92BDD688ACF803C52E5AA
:100B0000950760F48F71C03AD24508F03FC090E07D
:100B1000982F8827EC01C46FD06A7ACF805C924509
:100B2000809708F07FCFDC2FCC27CC27DF71C06FF8
:100B3000D06A6ECFA497D0646BCFC85AD0E0CC0FE8
:100B4000DD1FCA57DE4F0990D881C02DD46460CF15
:100B5000D0655ECFCF71D0E0DC2FCC27C16FD06ADB
:100B600057CF86958695877020E2829FC001112419
:100B7000C37021E030E0A90102C0440F551FCA959F
:100B8000E2F7EA01C82BD92BDA6842CF0E9494041D
:100B9000C82FD0E0DC2FCC27CC27DF71D06238CF34
:100BA0008F710E94940465E0D695C7956A95E1F728
:100BB000CF70D0E0DC2FCC27282F30E084FF05C099
:100BC00054E0220F331F5A95E1F7C22BD32BD06983
:100BD0001FCF8D2F8F710E949404182FCE0199275B
:100BE0000E94F003212F30E0322F222722273F716D
:100BF000282B392BE901D2CFA0E0B0E0E2E0F6E00B
:100C00000C94CC268C01E090F902F090FA028091CD
:100C1000F7029091F802E82AF92ACFE0D0E0CC243C
:100C2000C394D12CC6010C2E02C0880F991F0A94C0
:100C3000E2F78E219F21892B49F4219798F7B12C57
:100C40008B2DCDB7DEB7E9E00C94E826BC2EB801B9
:100C50008C2F0E94D0030E94E304019771F3F0CF20
:100C60000F931F93CF93FC0185810081118188230D
:100C700091F0662381F0C8010E94FC05C82F682FFF
:100C8000C8010E944103B8018C2F0E94D003CF916C
:100C90001F910F910895C8010E947403C82FF3CFCC
:100CA000CF93DF93D82FC92F0E94FC056D2F7C2F87
:100CB0000E94D0030E94E304DF91CF910895FC01CC
:100CC00084818823A1F0808191810E945006282F81
:100CD00092959F70963091F060F4925F9F70923081
:100CE00030F481E0203F79F030F4283E30F080E0AD
:100CF00004C09A5FF3CF243FD1F7089581E0283EE6
:100D000018F0213FF9CF0895089580E00895F894F0
:100D1000E82FE295EF70F0E041A18F7021E030E024
:100D2000B90102C0660F771F8A95E2F7CB01962FB3
:100D30009095942391A392A1892B82A378940895EE
:100D40000895A0E0B0E0E7EAF6E00C94CB26E901D4
:100D5000E42FF0E0E150FD4F61110BC0E4919E2FB4
:100D60008E2F8983E8839A83CDB7DEB7EAE00C94AF
:100D7000E726282F30E0062F10E0F491EF2F86E0D1
:100D8000829F6001839FD00C1124EE24EA94F12C01
:100D9000C601B7010E94AF26220F331F45E5469FCB
:100DA000C001479F900D1124281B390B822F880FFB
:100DB000280FC701801B910BF89FA001F99F500DD0
:100DC0001124952F209F5001219FB00C1124AB2C92
:100DD000BB24D701AA19BB095D01FA9DD001FB9D77
:100DE000B00D11248B2F5701A21AB1089501209F35
:100DF0005001219FB00C309FB00C1124AB2CBB24B0
:100E0000EA18FB08FE9D9001FF9D300D1124633010
:100E10007105C9F01CEFC11613E0D10650F4613022
:100E2000710509F49ECF6230710589F08E2FE32F92
:100E300098CF6430710571F066307105B9F3E52F14
:100E40009B2F8F2F8ECFEB2F852F9F2F8ACF852F14
:100E5000932F87CF832FE52FF8CF8091EC0284303A
:100E600060F4837084608093EC028091EF02893C8F
:100E700018F088EC8093EF02089587FFF6CF837017
:100E80008C67F1CF609111018091EC0280FF0EC060
:100E900070E02091100130E0C901880F991F820F86
:100EA000931F8E5C9D4F0E94140B08958091120138
:100EB00090911301282F30E0F901EE0FFF1FE20F90
:100EC000F31FEE5CFD4F891718F711821082128212
:100ED0008F5F3396F8CF9091EC0290FF11C0909104
:100EE000120150911301292F30E0F901EE0FFF1F7D
:100EF000E20FF31FEE5CFD4F951718F00E944207BA
:100F000008958183608342839F5F3396F5CFA3E08A
:100F1000B0E0EDE8F7E00C94D3269091EC0290FF5E
:100F20000DC0493C08F048EC9E012F5F3F4F0E94E6
:100F3000A1064B8169818A810E946B072396E2E0BA
:100F40000C94EF26CF93DF93EC01ECEEF2E04381BB
:100F500062818C810E9487078C818F5F8C83DF91F7
:100F6000CF910895E9EEF2E011828281846082835C
:100F70000895CF93DF93EC01EC81F0E0E650FE4F53
:100F80004491ECEEF2E0628181810E9487078C81BE
:100F90008F5F8C83DF91CF910895EF92FF921F9323
:100FA000CF93DF93EC0110E0EE24EA94F12C6091F2
:100FB0001401161770F00E9442079A818C8190FFED
:100FC00028C08F5F8C83DF91CF911F91FF90EF90AE
:100FD000089580911201810F9927991F9C01220F7A
:100FE000331F280F391F2E5C3D4F4091EF02493CC3
:100FF00008F048EC70E0C7010E940627962F8C810C
:101000006091EE02199F800D11240E94A1061F5FBE
:10101000CECF8150D7CF0F931F93CF93DF93EC01A7
:1010200000E010E040911401842F90E008171907A8
:101030006CF00E9442078C8190E0019681709927A4
:101040008C83DF91CF911F910F91089580911201B0
:10105000800F912F911D9C01220F331F280F391FE4
:101060002E5C3D4F9C816091EE028091ED02469591
:1010700050E00417150764F4992361F04091EF02E2
:10108000493C08F048EC0E94A1060F5F1F4FCACFF1
:101090009923A1F340E0F7CFFA01882311F00995D5
:1010A0000895FB01FCCF282F35EB2303C001112449
:1010B00097FF04C080589109892F089580589F4F49
:1010C000FBCF8091E00280FD17C081FD17C082FD3B
:1010D00019C08091DF02882399F08C3398F428E3BB
:1010E000829FC00111246CE370E00E940627611505
:1010F000710551F0862F08956EE0FCCF6CE1FACFB8
:1011000068E0F8CF68E3F6CF81E008958091E002CF
:1011100080FD17C081FD17C082FD19C08091DE02DD
:10112000882399F0883298F428E0829FC001112426
:1011300068E270E00E9406276115710551F0862F64
:10114000089562E0FCCF64E0FACF61E0F8CF68E098
:10115000F6CF81E008958091A802882359F0E091AC
:10116000AC02F091AD02309729F00190F081E02DB2
:101170000995089580E00895A3E0B0E0E2ECF8E07E
:101180000C94D3269C018091EA019091EB01821787
:101190009307A1F03093EB012093EA01E091AC02B8
:1011A000F091AD02309751F083E089833B832A832D
:1011B0000084F185E02DCE01019609952396E2E0A9
:1011C0000C94EF26A3E0B0E0E8EEF8E00C94D32610
:1011D0009C018091E8019091E90182179307A1F0A9
:1011E0003093E9012093E801E091AC02F091AD0267
:1011F000309751F084E089833B832A830084F18512
:10120000E02DCE01019609952396E2E00C94EF269D
:10121000A0ECB1E0EFEF90E02D91821751F0EF3F9D
:1012200019F4211101C0E92F9F5F9630A9F7EF3F14
:1012300009F408950E2E000CFF0BE254FE4F82833A
:101240000895E0ECF1E09191891303C0DF0111975B
:101250001C9291E0E63CF907B1F70895A4E0B0E0F4
:10126000E4E3F9E00C94D3268FB7F8942091970229
:10127000309198024091990250919A0229833A83C1
:101280004B835C838FBF69817A818B819C8124969B
:10129000E2E00C94EF26A4E0B0E0E1E5F9E00C9484
:1012A000D3268091A802882371F00E942E096983B9
:1012B0007A838B839C8369817A818B819C8124963C
:1012C000E2E00C94EF260E942E0969837A838B83D7
:1012D0009C838091A4029091A502A091A602B09156
:1012E000A70229813A814B815C81280F391F4A1F4F
:1012F0005B1F29833A834B835C83DDCF8091E701B9
:1013000008950895FC019B018091DD019091DE011B
:101310008617970740F0672B29F48091E8008E77B5
:101320008093E800C90140E0009741F4411106C0F4
:101330008091E80082FF2FC080E0089520916B0229
:101340002223A9F12530A9F12091E80023FD2DC029
:101350002091E80022FDECCF2091E80020FFE4CFAF
:101360003091F3002091F200009719F028303105F8
:1013700058F041E02830310509F040E02091E800C4
:101380002E772093E800D0CF41914093F100019750
:101390002F5F3F4FE9CF80916B02882341F085306A
:1013A00041F08091E80083FFC3CF81E0089582E09F
:1013B000089583E008958091D70187FF13C080913D
:1013C000E80082FF06C08091E8008B778093E800F8
:1013D00004C080916B028111F2CF089580916B025D
:1013E0008823D9F38091E80080FFF8CF8091E8004E
:1013F0008E77ECCF2091E4003091E50095E6A901CD
:101400008091EC008170882331F08091E80080FFAA
:1014100006C080E008952091E80022FD1BC0809165
:101420006B02882391F0853091F08091EB0085FD6F
:1014300010C02091E4003091E5004217530701F3FA
:1014400091509111DCCF84E0089582E0089583E00B
:10145000089581E00895E8EDF0E080818E7F80833B
:101460001092E2001092DA001092E100A0EEB0E0DB
:101470008C9181608C9380818F77808319BCA7EDDC
:10148000B0E08C918E7F8C9380818F7E80831092D0
:10149000D6010895FC01AC014B5F5F4F8FEF91E3E4
:1014A0002191822728E030E087FF0BC0880F892731
:1014B0002150310921153105B9F7E417F50781F7F6
:1014C0000895880FF5CF982FE42FE2709093E900EC
:1014D000891308C0762F242F50E0E11111C091E04C
:1014E000980FF4CF7091EC002091ED005091F00036
:1014F00021FD06C09F5F973049F78093E90008956A
:101500003091EB003E7F3093EB003091ED003D7F5A
:101510003093ED003091EB0031603093EB0070932D
:10152000EC002093ED005093F0002091EE0027FD99
:10153000E1CF0895A0E0B0E0E0EAFAE00C94CD2617
:10154000C8EDD0E088818F7E8883E7EDF0E0808170
:101550008160808384E082BF81E08093D6018881AE
:101560008E7F888302EE10E0F80110821092DA007C
:1015700081EEC82ED12CF601108288818F77888366
:1015800088818068888388818F7D888319BC1092C8
:101590006B021092D50110926A021092D40190EE63
:1015A000E92EF12CF70180818B7F80838881816017
:1015B000888342E060E080E00E94630AF601808157
:1015C0008E7F8083F8018081816080838081886044
:1015D0008083F70180818E7F80838881806188830A
:1015E000CDB7DEB7E8E00C94E926E09100039091D6
:1015F000FF0227E0E91302C080E00895AE2FB0E0BB
:101600002E9FF0011124EF5FFC4F3181361306C08D
:101610003081381303C03581341304C0FD01319685
:10162000E770E8CF81E008959C01AB01259A65B190
:101630006F7D75B17062EFB7F894CA01880F991F7A
:10164000840F951F820F931F8217930741F4EFBFFA
:101650008FE594E00197F1F700C000000895D901EB
:101660004D919D0158E075B9000000C047FF65B974
:10167000440F000000C000C000C065B900C05A950A
:1016800091F7E2CF0F931F93CF93DF93EB018A0182
:1016900090916B02943079F58093E9008FEF9091EF
:1016A000E80095FD07C095ED9A95F1F7000081508F
:1016B0008111F5CF8091E80085FF1DC00E94FA09D5
:1016C000811114C08091E80085FD06C08091E8007A
:1016D0008E778093E800F2CF88818093F1000150EB
:1016E00011090115110511F02196ECCF8091E80048
:1016F0008E778093E800DF91CF911F910F9108952D
:10170000CF93DF93D82FC92F48E050E0682F792F6F
:1017100081E00E94420B88E0ED2FFC2FAFEDB1E09D
:1017200001900D928A95E1F7DF91CF910895BC0168
:1017300046E050E082E00E94420B0895BC0143E085
:1017400050E082E00E94420B0895A0E0B0E0EBEA96
:10175000FBE00C94CB26F82EE92EB62EA72E8A019C
:101760008091D201CC24C394D12C8A3018F48AE021
:10177000C82ED12CC1E0D0E06B2D7A2D8F2D9E2D5F
:10178000F8010995811116C02196CC16DD0694F05A
:10179000CC9FC001CD9F900D900D112420E030E032
:1017A00045E34A95F1F700002F5F3F4F28173907AF
:1017B000B9F7E2CFCDB7DEB7EAE00C94E726909117
:1017C000FD0292FB222720F9281779F080FB92F97D
:1017D0009093FD026091FC027091FD0284E090E024
:1017E0000E94172882E00E94B00308958091F402BD
:1017F0009091FE02892B4091F502442389F090E0FC
:1018000020EC31E0F90150812F5F3F4F51119F5F74
:1018100051E0263C3507B1F791111092F502842B67
:101820008093BE0148E050E06EEA72E08EEB91E0FA
:101830000E94BF27892BA9F088E0EEEBF1E0AEEA29
:10184000B2E001900D928A95E1F7E091AC02F0913F
:10185000AD02309731F00280F381E02D8EEB91E004
:1018600009950895882339F09091F402892B80938B
:10187000F4020E94F60B0895882321F00E94C80309
:101880000E94F60B0895A0E0B0E0E9E4FCE00C94BF
:10189000C626582EFA015901680198E08902E00134
:1018A0001124EF2B69F5FE01E35DFE4F86819781E0
:1018B000892B09F04AC0C114D10401F1FE01E35D96
:1018C000FE4FE380F12CCE14DF0408F47601C35DF3
:1018D000DE4F6C817D81AB014D5B5C4F04E610E017
:1018E000970182E30E945C2597FD29C06C817D8170
:1018F0006D5B7C4FA701C5010E94CC2781E020C011
:10190000DE01A35DBE4FEC90F12C4E155F0508F48F
:101910007A01FE01E35DFE4F81809280C4018D5B00
:101920009C4F3C01A7010E94CC2704E610E09701E0
:10193000A301682D82E30E940A2597FFB4CF80E0BF
:10194000CDB7DEB7EFE00C94E226509243036091EE
:101950002E0170912F0120912D0130E0AB014D5BE4
:101960005C4F04E610E082E30E940A2597FFA3CFB4
:10197000E6CFA6E0B0E0EFEBFCE00C94CF267B01D5
:1019800001E010E09E012A5F3F4F40E050E060E040
:1019900070E081E00E94430C182F882309F44EC0A8
:1019A0004091A0025091A1026091A2027091A30205
:1019B0002FB7F8948091970290919802A091990284
:1019C000B0919A022FBF841B950BA60BB70B8436E0
:1019D0009105A105B10538F485E493E00E944A0A17
:1019E0009E81891759F105E010E09E012F5F3F4F5E
:1019F00040E050E060E070E082E00E94430C182F6D
:101A000085E493E00E944A0A9E81981322C0112324
:101A100001F10E942E096093A0027093A1028093AD
:101A2000A2029093A30285E0FE013196ABE9B2E0F9
:101A300001900D928A95E1F781E00CC085E0E5E424
:101A4000F3E0DE01119601900D928A95E1F71111F4
:101A5000EACF80E095E0EBE9F2E0D70101900D924A
:101A60009A95E1F72696E6E00C94EB26A8E0B0E024
:101A7000ECE3FDE00C94D126409193025091940246
:101A800060919502709196022FB7F8948091970219
:101A900090919802A0919902B0919A022FBF841B55
:101AA000950BA60BB70B11E084369105A105B10586
:101AB00020F10E944B09DC01CB010296A11DB11D52
:101AC00089839A83AB83BC8300E010E020E030E0A0
:101AD00044E050E0BE016F5F7F4F83E00E94430C03
:101AE000182F882351F00E942E096093930270935F
:101AF00094028093950290939602812F2896E4E0B9
:101B00000C94ED26ABE0B0E0E8E8FDE00C94CD26C7
:101B100088E0ECEEF2E09E012F5F3F4FD90101908B
:101B20000D928A95E1F74091E9029091EA02809145
:101B3000EB0249879A878B87C0908F02D0909002E2
:101B4000E0909102F09092029FB7F8944091970232
:101B5000509198026091990270919A029FBF4C191E
:101B60005D096E097F09E22F932F44365105610507
:101B7000710510F48823B9F000E010E020E030E0B7
:101B80004BE050E06E2F792F84E00E94430C8823B5
:101B900069F00E942E0960938F02709390028093E7
:101BA0009102909392021092EB0281E02B96E8E072
:101BB0000C94E926A0E0B0E0E0EEFDE00C94C52630
:101BC000FC016280448081E08483EAEFF1E074905C
:101BD000E9E7F2E0E491C091EF02C695C158D0E088
:101BE000CC0FDD1FED2EFF24812C75E0972EAA244B
:101BF000AA94B12C55245A94E719CE2ED12C809159
:101C00001401881638F00E944207CDB7DEB7E0E134
:101C10000C94E126082D10E082E0861568F0909E75
:101C2000F001919EF00D1124E451FE4F8091ED02E0
:101C300080838091EE02818341102DC0909EF0013F
:101C4000919EF00D1124E451FE4F13821282809177
:101C50001201800F912F911D9C01220F331F280F1D
:101C6000391F2E5C3D4F909EF001919EF00D112486
:101C7000E451FE4F4281493C08F048EC909EF0014F
:101C8000919EF00D1124E451FE4F618180810E94EC
:101C9000A1068394B4CF909EE001919ED00D1124B3
:101CA000C451DE4F8B818823E9F081508B83589E8D
:101CB000C00111246C8170E00E94AF26FB01FF2758
:101CC000E650FE4F8491E82FE7195E9EC001112473
:101CD000B6010E94AF268091EF02689FB0011124E7
:101CE0007A83B5CF0E94A227B5010E9406278E15E0
:101CF0009F050CF0ACCF82E0861588F40E94A227E5
:101D0000B5010E94062788830E94A2272091EE0237
:101D10002695622F70E00E940627280F2983909E47
:101D2000F001919EF00D1124E451FE4F128280913A
:101D3000EF02893C58F088EC909EF001919EF00DE6
:101D40001124E451FE4F8483838381CF8431A0F733
:101D500084E1F2CFA0E0B0E0E0EBFEE00C94CD2611
:101D60008901D42FC52F6B017C010E942D07A8018A
:101D70006D2F7C2F88E090E00E940B2898014D2F5A
:101D80005C2FB601C70100E20E943B27622F84E26C
:101D900090E00E94F927CDB7DEB7E8E00C94E92681
:101DA0008091F002833018F48F5F8093F0022091CD
:101DB000EC023091ED024091EE025091EF02609101
:101DC000F0027091F1028091F2029091F3020E9470
:101DD000AA0E08958091F002882319F08150809313
:101DE000F0022091EC023091ED024091EE02509110
:101DF000EF026091F0027091F1028091F2029091F5
:101E0000F3020E94AA0E0895A3E0B0E0EAE0FFE02A
:101E10000C94CB26E82ED62EF42EB22E9091EC0206
:101E200090FF46C03091ED02381308C08091EE0259
:101E3000861304C08091EF02841729F08091EB0291
:101E400082608093EB02E92FE695E695AE2FB0E035
:101E5000AC59BE4F8C918093E9029C7F943061F520
:101E60004F2D88EC8F1508F448EC9E012F5F3F4FF3
:101E70006D2D8E2D0E94A1064B8169818A810E9461
:101E80006B073E2D3093ED02D092EE02F092EF02FE
:101E9000BB2071F02091EC026091F0027091F10290
:101EA0004D2D5F2D8091F2029091F3020E94AA0EB7
:101EB0002396EAE00C94E726823019F4F090EF02C2
:101EC000E0CF8630F9F28930E9F28F30D1F6EF5069
:101ED0009E2F9170A92EE695F0E0E650FD4FE4911B
:101EE000C12C0E2F10E060911401C61618F00E944C
:101EF0004207C7CF2C2D30E0C09EC001C19E900D7F
:101F0000112470E00E94AF268E2DA11017C0860FFD
:101F100090911201A901490F511D9A01220F331FFF
:101F2000240F351F2E5C3D4F4F2D98EC9F1508F464
:101F300048EC6D2D0E94A106C394D5CF861BE8CF37
:101F4000ECEEF2E0818121E043816281885F0E94B2
:101F5000040F0895ECEEF2E0818121E0438162817B
:101F600088500E94040F0895ECEEF2E0628121E1B6
:101F7000620F08F46FEF21E0438181810E94040F1A
:101F80000895ECEEF2E0628121E1621B08F460E06A
:101F900021E0438181810E94040F0895ECEEF2E07C
:101FA000438121E1420F08F44FEF21E062818181FA
:101FB0000E94040F0895ECEEF2E0438121E1421B00
:101FC00008F440E021E0628181810E94040F0895BD
:101FD0001F921FB61F9211248F939F93AF93BF93AD
:101FE00080916902811113C08091970290919802AB
:101FF000A0919902B0919A024196A11DB11D8093C2
:10200000970290939802A0939902B0939A02BF917D
:10201000AF919F918F911F901FBE1F9018952FB762
:10202000F8948091970290919802A0919902B091B2
:102030009A022FBF08958091A802882319F00E9468
:102040000F1008950E944B09CB0108956091EC0296
:102050006695669570E04BE050E085E091E00E9467
:10206000B227892B19F481E08093EA020E941B10A9
:1020700090938502809384028091EB028460809328
:10208000EB0208959091EC0290FF42C0882309F47E
:1020900040C0803208F03FC08F73282F220F220FDC
:1020A0008091EC028370282B2093EC028091EB024C
:1020B00081608093EB02662381F03091ED024091C4
:1020C000EE025091EF026091F0027091F102809166
:1020D000F2029091F3020E94AA0E6091EC026695C2
:1020E000669570E04BE050E085E091E00E94B227F9
:1020F000892B99F00E94B20781E08093870220E04B
:102100004091EF026091EE028091ED020E94040F77
:10211000089581E0C2CF8FE1C0CF0E942610ECCF9E
:102120008091EC02869586958F5F803208F081E081
:1021300061E00E94421008959091EC029695969568
:102140008FEF890F913009F48FE161E00E94421016
:1021500008959091EC0290FF09C096959695981776
:1021600028F0961718F40E949010089561E00E94DC
:10217000421008950E940F102091E3023091E40272
:10218000232B222321F080938C0290938D022091A7
:10219000E5023091E602232B222321F080938A026C
:1021A00090938B02E091AC02F091AD02309749F030
:1021B00082E08093E1020680F781E02D81EE92E0DB
:1021C000099508952091E3029091E6023091E5028D
:1021D000662309F45AC04091E402242B292B232BB7
:1021E000222331F098E09093DF0291E09093DE0299
:1021F0008D3C41F40E94610881958093E4020E9425
:10220000BA100895E2E3E80FE231C8F7F0E0EE56C5
:10221000F74D0C941A270E946108EFCF0E946108C5
:1022200081958093E302EBCF0E946108FACF0E9470
:1022300086088093E502E3CF0E9486088195F9CF56
:102240000E94860881958093E602D9CF0E94860875
:10225000FACF815D990B21E030E001C0220F8A9511
:10226000EAF78091E202822B8093E202C8CF80914C
:10227000E00281608093E002C2CF8091E002826040
:10228000F9CF8091E0028460F5CF8D3C59F48091C4
:10229000E40287FF0DC01092E402222359F4109249
:1022A000DF0208C08E3C81F48091E40218169CF392
:1022B000222381F08091E5029091E602892B811121
:1022C0009ECF1092DE029BCF8F3C41F427FFF0CFD0
:1022D0001092E3028091E4028823E0CF803D19F45C
:1022E0001216B4F3E5CF893D29F413160CF71092BA
:1022F000E502DECF8A3D19F437FFDACFF8CF8B3D08
:1023000029F497FFD5CF1092E602D2CF8C3D19F475
:102310001916CCF3CDCF9FE2980F983090F4815DE1
:10232000990B41E050E0BA0102C0660F771F8A9511
:10233000E2F7CB0180959091E20289238093E2023B
:10234000B7CF8D3D31F48091E0028E7F8093E00223
:10235000AFCF8E3D21F48091E0028D7FF7CF8F3D8E
:1023600009F0A6CF8091E0028B7FF0CFCF93C82FEA
:102370008823C9F08238C9F40E94AB0881FD13C0DC
:1023800089E30E9408090E94F60B2FEF37EE83E0E5
:10239000215030408040E1F700C0000089E30E94F6
:1023A00021090E94F60BCF9108958338A1F40E9471
:1023B000AB0880FDF8CF83E50E9408090E94F60B68
:1023C0009FEF21EE34E0915020403040E1F700C013
:1023D000000083E5E4CF8438A1F40E94AB0882FDBD
:1023E000E2CF87E40E9408090E94F60B8FEF91EE7E
:1023F00024E0815090402040E1F700C0000087E4D5
:10240000CECF8CEF8C0F813A70F4E0ECF1E086ECEB
:1024100091E02191C217D9F18E179F07D1F78C2F28
:102420000E940809BECF80E28C0F883068F4C77024
:1024300021E030E001C0220FCA95EAF78091F40252
:10244000822B8093F402ADCF8BE58C0F833038F470
:102450002C2F2452330BC9010E94BC08A4CFE8E5FD
:10246000EC0FEB3150F4F0E0EE0FFF1FEA57FE4F98
:10247000808191810E94E20896CF83E38C0F8331A3
:1024800008F091CF61E08C2F0E94E2108CCF8C2F4E
:102490000E9421090E94F60BC2CF882309F456C07E
:1024A000823879F40E94AB0881FF50C089E30E9412
:1024B00008090E94F60B89E30E9421090E94F60B8D
:1024C0000895833859F40E94AB0880FF3FC083E52C
:1024D0000E9408090E94F60B83E5EECF843859F478
:1024E0000E94AB0882FF32C087E40E9408090E9464
:1024F000F60B87E4E1CF9CEF980F913AE8F290E277
:10250000980F983050F4877091E001C0990F8A9528
:10251000EAF7892F0E94C803D1CF9BE5980F93302B
:1025200028F480E090E00E94BC08089598E5980F98
:102530009B3128F480E090E00E94E208089593E344
:10254000980F933118F460E00E94E2100895CF9341
:102550001092F402C6E0E0ECF1E0DF018C2F1D9256
:102560008A95E9F780E090E00E94BC0880E090E066
:102570000E94E2081092FE020E94F60BE1EEF2E0E9
:10258000DF011D92CA95E9F71092DF021092DE0278
:102590001092E0020E94BA10CF9108950E94A712F3
:1025A0002FEF84E39CE0215080409040E1F700C091
:1025B000000088E19AE00FB6F894A8958093600037
:1025C0000FBE90936000FFCFAAE2B0E0EAEEF2E126
:1025D0000C94D22687ED91E0FC0101962091F10048
:1025E000208321E08F3D9207B9F78091D80189308F
:1025F00009F456C0C8F4823009F4B2C0833009F43B
:1026000081C0813071F18091E80083FFE6C0809144
:10261000D7019091D8019A3008F0DFC0E92FF0E09F
:10262000EC55F74D0C941A278A3009F488C08B308A
:1026300051F78091D701813231F78091DB01909180
:10264000DC01892B01F78091E800877F8093E80007
:102650000E94DB098091D901809304010E94A71296
:10266000D2CF8091D701813A71F68091E800877FBF
:102670008093E8008091DB019091DC01892B61F06F
:1026800060E080E090E070E00E9482098091E800C4
:102690008B778093E800B7CF68E08FED91E0F3CFC0
:1026A0008091D701813209F0AECF8091DB0190910A
:1026B000DC01029708F0A7CF8091E800877F809324
:1026C000E8008091E80082FF18C09091F3008091AB
:1026D000F200029731F48091F100813011F08630E0
:1026E00021F48091F1008093E7018091E8008B77DD
:1026F0008093E8000E94DB0986CF80916B028111F4
:10270000E0CF81CF8091D701813A09F07CCF8091D1
:10271000DB019091DC01892B09F075CF8091E800F5
:10272000877F8093E8008091E80080FFFCCF809154
:1027300004018093F1008091E8008E77D9CF8091D9
:10274000D701813209F05FCF8091E800877F8093C5
:10275000E8000E94DB098091DA018093D30153CF16
:102760008091D701813A09F04ECF8091E800877FB0
:102770008093E8008091E80080FFFCCF8091D30136
:10278000D8CF803889F0823841F58091DB018F7095
:10279000873018F58093E9008091EB0085FB88274E
:1027A00080F91092E90006C08091D40190916A02EC
:1027B000911182609091E800977F9093E800809358
:1027C000F1001092F1008091E8008E7723C0811112
:1027D00016C08091D901813011F18091E80083FF0A
:1027E0000AC08091E800877F8093E8008091EB0029
:1027F00080628093EB00AA96E3E00C94EE26823090
:1028000061F78091D901882389F01092E9008091C5
:10281000E800877F8093E8000E94DB09DECF81E03B
:10282000933009F080E080936A02EFCF8091DB0162
:102830008F702FEF280F263080F68093E9002091CB
:10284000EB0020FFE2CF933031F48091EB00806207
:102850008093EB00DACF9091EB0090619093EB00C6
:1028600021E030E0A90102C0440F551F8A95E2F72C
:102870004093EA001092EA008091EB008860E8CF74
:102880008111ABCF1091D9011F778091E30080783F
:10289000812B8093E3008091E800877F8093E8009C
:1028A0000E94DB098091E80080FFFCCF8091E3006B
:1028B00080688093E30083E0111101C082E080937F
:1028C0006B028BCF8058823008F087CF4091D901BE
:1028D0005091DA014C3D83E0580799F583E08A83F3
:1028E0008AE289834FB7F894DE01139620E03EE038
:1028F00051E2E32FF0E050935700849120FF03C092
:1029000082958F703F5F8F708A30C8F0895C90E04D
:102910008D939D932F5F243161F74FBF8091E80025
:10292000877F8093E8006AE270E0CE0101960E9402
:1029300082098091E8008B778093E8004ECF805D1C
:10294000E6CF2091DB013091DC01852F9927833080
:10295000910509F160F48130910509F472C0029784
:1029600009F03BCF8BE390E0EBE6F1E029C0813248
:10297000910509F45AC0829709F02FCF211531052E
:1029800009F469C02130310509F027CF8BE790E0C9
:10299000ECEAF0E015C0CA0199274130B1F182306C
:1029A000910509F43AC0892B09F017CFE6EFF1E061
:1029B000E4918E2F90E0E6EFF1E0009709F40DCF5F
:1029C0002091E800277F2093E8002091DD013091DD
:1029D000DE018217930708F49C0140E021153105C0
:1029E00009F03EC041113CC08091E80082FDA1CFBA
:1029F00080916B02882309F49CCF853009F499CF2C
:102A00008091E80083FFF0CF94CFE2EDF1E0E49114
:102A10008E2F90E0E2EDF1E0D0CFE8EBF1E0E49131
:102A20008E2F90E0E8EBF1E0C8CF2115310571F071
:102A30002130310509F0D1CE89E090E0E6E9F1E0FE
:102A4000BFCF82E190E0E6EAF1E0BACF89E090E022
:102A5000EDE7F1E0B5CF84E490E0E7E2F1E0B0CF5C
:102A600080916B02882309F464CF853009F461CF2B
:102A70008091E80083FD5DCF8091E80082FDB4CFB6
:102A80008091E80080FFAACF9091F3008091F2003E
:102A90002115310519F08830910550F041E0089773
:102AA00009F040E08091E8008E778093E80096CFAF
:102AB00044914093F1003196215031090196E8CFBD
:102AC000803809F08ACE8091E800877F8093E80003
:102AD0008091D5018093F10076CE81117ECE109148
:102AE000D901123008F079CE8091E800877F809379
:102AF000E8001093D5010E94DB09112381F084E0E6
:102B000080936B0242E061EC81E00E94630A42E242
:102B100061EC82E00E94630A80916B025ECE80913C
:102B2000E30087FDECCF81E0EBCF9C014FB7F89439
:102B30008091970290919802A0919902B0919A0287
:102B40004FBF821B930B08950F931F93CF93DF9377
:102B5000C62FD42F122F8823A9F06093E7020E947A
:102B60000F109093D1018093D001C77081E001C014
:102B7000880FCA95EAF70E94320CDF91CF911F911E
:102B80000F9108958091E702681338C08091D001B9
:102B90009091D1010E949515883C910578F5CD134F
:102BA0000FC0812F0E94B611812F0E944D12D77045
:102BB00081E001C0880FDA95EAF70E943C0CDDCF76
:102BC000C77001E0802F01C0880FCA95EAF70E9404
:102BD0003C0C80E28D0F883050F48D2F877001C03F
:102BE000000F8A95EAF7802F0E94320CDACF812FEE
:102BF0000E94B611812F0E944D12BFCFC77081E095
:102C000001C0880FCA95EAF7D8CFA0E0B0E0EBE0AA
:102C1000F6E10C94CD268C01FC018481882331F1EE
:102C200061E0C8010E943006EC01F8018581FE01D7
:102C3000E851FC47E730F105A8F5E255F74D0C9453
:102C40001A2726E241EE61EE0E94A4158091FB0254
:102C50008770882359F0F8018581882339F08091A5
:102C6000FD0282FF03C082E00E94B003CDB7DEB751
:102C7000E8E00C94E92627E245EE65EEE5CF26E292
:102C800041EE60EEE1CF27E245EE64EEDDCF26E2D5
:102C900041EE62EED9CF27E245EE66EED5CF28E2CF
:102CA00041E0EBCF81110DC0C631FCE7DF0709F031
:102CB000F8C08091E8028111F2C089E20E942109E6
:102CC000E9C01092E702CE019057839708F0CFC079
:102CD00084E090E00E94E3279093FD028093FC0241
:102CE000FE01E150F047E232F10520F4EB54F74DDC
:102CF0000C941A278091FC0281608093FC02609101
:102D0000FC027091FD0284E090E00E9417280E946E
:102D1000A7129CCF8091FD0288608093FD02EFCFC7
:102D20008091FC028260E9CF8091FC028460E5CF53
:102D30008091FC028860E1CF8091FD028160EDCF3F
:102D40008091FD028260E9CF8091FC028061D5CF45
:102D50008091FC028062D1CF8091FC028064CDCF53
:102D60000E94A7128091FC028068C7CF8091FC026C
:102D70008C60C3CF8091FD028360CFCF8091FC0235
:102D80008E7FBBCF8091FD02877FC7CF8091FC02F1
:102D90008D7FB3CF8091FC028B7FAFCF8091FC02FF
:102DA000877FABCF8091FD028E7FB7CF8091FD02F0
:102DB0008D7FB3CF8091FC028F7E9FCF8091FC02EC
:102DC0008F7D9BCF8091FC028F7B97CF0E94A712B3
:102DD0008091FC028F7791CF8091FC02837F8DCF11
:102DE0008091FD028C7F99CF8091FC0282FB992714
:102DF00090F921E0922790FB82F990FB83F97DCF37
:102E00008091FD02982F909591708E7F892B90FB79
:102E100081F983CF9091FC02892F8F7B96FF80648C
:102E20006CCF0E94A7129091FC02892F97FB87F923
:102E3000805863CF61E08EE090E00E94F9275FCF79
:102E400060E0F9CF9091FC02892F8F7E94FF806122
:102E500054CF9091FC02892F8E7F90FF81604DCFDF
:102E60009091FD02892F877F93FF886056CFC631EE
:102E70002CE7D20709F096C08091F4028A7A91E09B
:102E8000811101C090E09093E802882331F085E33E
:102E90000E9408090E94F60BD9CE89E2F9CF85E39A
:102EA0000DCF8091F4028272FE01E052F847E531C5
:102EB000F10508F08CC0E952F74D0C941A27809167
:102EC000EC0280FF1EC0282F2E7F2093EC02309151
:102ED000ED024091EE025091EF026091F00270918C
:102EE000F1028091F2029091F3020E94AA0E0E94D8
:102EF000B2078091EB0281608093EB020E9442074F
:102F0000A5CE81608093EC0261E0869586950E9453
:102F100042109CCE4CE950E160E970E10E944C08FF
:102F200095CE40E950E16CE970E1F8CF4AEA5FE004
:102F300060EA7FE0F3CF40EA5FE06AEA7FE0EECF4D
:102F400041EC5FE064EB7FE0E9CF44EB5FE061ECF4
:102F50007FE0E4CF4BED5FE06EEC7FE0DFCF4EEC47
:102F60005FE06BED7FE0DACF4AEE5EE060ED7EE0A1
:102F7000D5CF40ED5EE06AEE7EE0D0CF61E081E04B
:102F8000C6CF65E082E00E94A91060CE68E086E0CE
:102F9000FACF6EE089E0F7CF68E18FE0F4CF6FE120
:102FA0008AE1F1CFCA353CE7D30709F494C008F0B1
:102FB0005CC0C1309CE7D90709F48BC0C330ECE793
:102FC000DE0709F480C0C115DC4709F460C0F801D0
:102FD0008581E080F180882309F481C0C7010E94C7
:102FE000FC05C82F682FC7010E944103B7018C2F31
:102FF0000E94D0030E94E304D82FC92FF801D58086
:10300000C680C2942FE0C2228091FB028770882381
:1030100001F1FD2CDD20F1F0892F807F803461F0FB
:1030200080E28D0F8830A8F0892F807E803221F4D5
:10303000D23078F0CC2069F08091FD0282FF09C087
:1030400082E00E94B0038091FB028770FF24F3941A
:103050008111F12CEC2FE295EF70C03C08F0AAC072
:10306000F0E0E451F74D0C941A27CB352CE7D2074A
:10307000A1F1CC35DC4709F0AACF8091FD0282FB9B
:10308000882780F991E089270E94DF0BA0CF0E945A
:10309000A7128FEF94E3ECE081509040E040E1F71D
:1030A00000C0000087E797E790930108809300082D
:1030B00088E19AE00FB6F894A895809360000FBE5F
:1030C00090936000FFCF6FEF7FEF80E090E00E9471
:1030D00017280E94CE1281E0D7CF80E0D5CFC7015C
:1030E0000E947403C82F82CFFC2FFF70EF2EC031D7
:1030F00018F0E29490EFE922DD20B9F0EE2069F0BB
:1031000080E28D0F883010F0D11109C08091F40257
:103110008E298093F4020E94F60B8D2F43C080917C
:10312000FE028E298093FE02F6CF8D2F0E944D1253
:10313000EE2009F43FC080E28D0F883010F0D111ED
:1031400004C08E2D0E94C80306C0E0948091FE0248
:103150008E218093FE020E94F60B2CC02C2F2F7024
:10316000E22EC07FC03219F0E29480EFE822DD2326
:1031700049F0D13009F46BC0DD2009F477C0CC20D0
:10318000C9F1CBCF8091FD0282FD30C0DD2069F016
:10319000EE2039F08091F4028E298093F4020E948F
:1031A000F60B80E00E94B61105C080E00E944D122F
:1031B000E110C7CFFF20A9F08091FB0280FD11C074
:1031C000F80115828695869586950E941F03C80191
:1031D0000E9405168091FB028695869586950E9431
:1031E0002F0360E0C8010E94300640CDDD2099F039
:1031F000C11004C08E2D0E94320CDCCF31E0C3120E
:10320000D9CF8091F5029E2D9823E91699F28E2947
:103210008093F502CFCFC110CDCF8E2D0E943C0CF4
:103220009091F5028E2D8923882329F08E2D80958B
:1032300089238093F5028091F6029E2D982399238D
:1032400009F4B8CFE094E822E092F602B3CFDD2093
:1032500029F085E08C1508F4ADCFCCCF94E09C1517
:1032600008F4A8CF8E2D0E943C0CA4CFCC20D1F323
:10327000D93349F4EFEFF7EE23E0E150F04020407E
:10328000E1F700C000008D2F0E944D1293CF8C2FCC
:10329000869586958370882369F0813009F08ACFFE
:1032A0008D2F9C2F9370D11002C080E090E00E947F
:1032B000E20880CF8D2F9C2F9370D11002C080E048
:1032C00090E00E94BC0876CF6D2D8D2F0E94E210F9
:1032D00071CF8C2F8370811142C0D1102FC04D2F20
:1032E000429546954770440F440F2D2F2F7030E0C4
:1032F000042E02C0220F331F0A94E2F780E090E010
:10330000D4FF09C08FE090E002C0880F991F4A9552
:10331000E2F780959095C695C695C370C230B1F01E
:10332000C33089F04091F7025091F802C13049F062
:10333000822B932B842395230E9415030E94AB08B4
:1033400039CF242B352B822B932BF6CF822B932B2B
:103350002091F7023091F80282279327EDCFDD20EC
:1033600091F1C0FFEBCF4D2F429546954770440F2A
:10337000440F2D2F2F7030E0042E02C0220F331F78
:103380000A94E2F780E090E0D4FF09C08FE090E07B
:1033900002C0880F991F4A95E2F780959095C695CF
:1033A000C695C370C230C1F0C33099F04091F902A4
:1033B0005091FA02C13059F0822B932B842395232C
:1033C0000E941A03BBCF823008F4B8CFCCCF242B95
:1033D000352B822B932BF4CF822B932B2091F90248
:1033E0003091FA0282279327EBCFCF70DD2039F09E
:1033F0008C2F0E941F038D2F0E94320C9FCF8D2F88
:103400000E943C0C8C2F0E942F0398CFD23FA1F139
:1034100078F4D03FC1F0D13F09F447C0DD2009F472
:103420006BC0CC2009F465C08D2F0E94B61186CFE9
:10343000D33F49F1D43FA9F1D110F3CFC1106AC0F5
:103440008C2F8F71E0CFDD20A1F034E03C1508F423
:1034500075CFCF7181E090E0FC0102C0EE0FFF1F3D
:10346000CA95E2F78091F9029091FA028E279F2780
:10347000A7CFF5E0CF16EBCF8C2F8F71D110C3CF34
:103480000E941F035BCF80E090E0DD2009F498CF1D
:10349000CF7181E090E002C0880F991FCA95E2F7D2
:1034A0008FCF8091FD0282FD06C08C2F8F71DD20B1
:1034B00009F4A9CFE5CFDD2089F0CF718C2F0E94D0
:1034C0001F038091FD0282FF07C028E0C29FC00158
:1034D000112483608093FB028C2FD2CF81E00E9465
:1034E000B00331E03C1508F029CF82E00E94B00320
:1034F00025CF8C2F8F71C4CFCC2009F4A1CFD93325
:1035000049F48FEF97EEE3E081509040E040E1F71F
:1035100000C000008D2F0E944D1210CF80913F03FC
:10352000803178F480913E03882359F0E0910003C4
:103530002091FF0230913A034091390357E02E1356
:1035400001C008956E2F70E05E9FF0011124DF012D
:10355000AF5FBC4F14968C911497882361F111963C
:103560008C911197831327C08C91841324C01596D6
:103570008C91159781111FC012968D919C91A091ED
:103580003B03B0913C038A1B9B0B883C910598F44C
:1035900080913F038F70806180933F03E95FFC4F10
:1035A00080818F708061808389E393E00E9405169B
:1035B0000E94A6030895FB013196E770C0CFADE0ED
:1035C000B0E0E5EEFAE10C94C8268C0186E0F80143
:1035D000DE01189601900D928A95E1F7F801E080DE
:1035E000F580A280B380C48089E3882E83E0982E82
:1035F00070903D03711020C0CC20D9F0FF2009F459
:1036000019C1C8010E945F06882309F413C187E02D
:10361000F801D40101900D928A95E1F7F1E0CF1203
:1036200006C08091390390913A030E9450060E948F
:103630008E1AFF24F39451C0D0903E0380913B0337
:1036400090913C039501281B390BDD2009F4BAC089
:10365000283C310508F090C0CC2059F390913A03F2
:10366000C18080913F03803108F058C0C91214C056
:10367000909139039E1110C0F1104AC08F70806183
:1036800080933F0389E393E00E94051680913F03F6
:10369000F8018683F12C21C0F1103AC040E06C2D76
:1036A0008E2D0E94F50A40E06C2D8E2D0E94F50AA9
:1036B000F82E8111EFCF888599850E945006292F19
:1036C00022952F70903470F49F702230A0F09923CF
:1036D000B1F0F8019681903190F48F2D2D96EDE0A8
:1036E0000C94E4262A5F2F70223068F0C8010E94F3
:1036F0000516FD2CF2CF992311F0882371F3805E1B
:10370000883058F3F3CF803F40F3815F8230F9CFA8
:1037100080913F03816080933F03BCCFC91207C0F3
:10372000909139039E1103C0FF2009F46CC0C801B9
:103730000E945F06882309F47DC0FF2009F47AC047
:1037400080913F03803278F02091390330913A0321
:103750003A832983BC82AB827D821E828F83CE0115
:1037600001960E94051687E0F801A9E3B3E00190F5
:103770000D928A95E1F75BCF80913F03803150F441
:1037800089E393E00E94051687E0F40111928A957F
:10379000E9F780CFCC2009F44CCF20913A039181F6
:1037A0002913C5CF909139039E11C1CFF110BFCF1E
:1037B0008683C8010E94051687E0F40111928A955C
:1037C000E9F737CF283C3105F8F6CC2009F431CFA2
:1037D000FF2081F190913A038181981321C080915B
:1037E00039038E111DC080913F0380FD10C08031D0
:1037F00070F08683807F803F39F08681982F907F9C
:10380000905F8F70892B8683C8010E94051687E020
:10381000F801A9E3B3E001900D928A95E1F709CF91
:10382000C8010E945F0681119ECF80913F03816095
:1038300080933F03C8010E940516FBCEABE1B0E0C8
:10384000E4E2FCE10C94D2264E8B5F8B688F798F7B
:103850008A8F9B8F91111092FE021D8A86E0FE01D5
:103860007696DE011F9601900D928A95E1F78B897D
:10387000882329F061E0CE010F960E94300687E090
:10388000FE013F96DE01189601900D928A95E1F7B0
:10389000CE0108960E94DF1A81112BC087E0FE013D
:1038A0003896DE01119601900D928A95E1F72091EC
:1038B000FF02409100038C858823D9F030E0C901D4
:1038C00001968770992750E084179507E9F097E0F3
:1038D000929FD001939FB00D1124AF5FBC4FFE01AA
:1038E000319601900D929A95E1F78093FF020E9424
:1038F000A60317E0809100039091FF02891312C084
:103900006B96E3E00C94EE260E94A7121092FF0241
:103910001092000387E0E9E3F3E0DF011D928A954E
:10392000E9F7E7CF189FC00111248F5F9C4F0E94D9
:10393000DF1A882329F38091000390E001968770B5
:10394000992780930003D6CFA6E0B0E0EAEAFCE135
:103950000C94D1260E940F108C018091AA029091A4
:10396000AB028017910779F019821A820E940F101A
:10397000BC0149815A8180E090E00E941E1C109396
:10398000AB020093AA022696E4E00C94ED26A9E18E
:10399000B0E0EDECFCE10C94C6261D861C86FE0111
:1039A0003E9688E0DF011D928A95E9F78DE1E82EC9
:1039B00081E0F82E8E01045F1F4F92E2C92E91E044
:1039C000D92E3801AA24A394B12C3DE1832E31E0F5
:1039D000932EF70181917F018F3F09F441C0F89444
:1039E000E82FE295EF70F0E021A18F70A50102C0F1
:1039F000440F551F8A95E2F7CA01922F982B91A385
:103A000092A18095892382A3789400C0E5E1F1E03A
:103A100031E0512C21912F3F09F490C0A22FA295A3
:103A2000AF70A05EB0E08C9190E02F7002C09595D1
:103A300087952A95E2F78170811180C0832F582ADB
:103A4000330F8E169F0631F7F701319780818F3F34
:103A500011F00E94870650EA5A95F1F7D8015C925E
:103A60000F5F1F4FCE14DF0409F0B3CF4AE050E0E0
:103A7000B3018CE592E00E94BF270091670210E03D
:103A800004591D4F892B09F45BC08AE0F301ACE5B2
:103A9000B2E001900D928A95E1F781E08093CF0129
:103AA0000E940F109093CE018093CD018091A802C7
:103AB000882309F49DC01A821982FE01339683E09F
:103AC000DF011D928A95E9F78091D2018A3008F0D2
:103AD00059C049EB5CE0FE0131967F01BF01C8018E
:103AE0000E94A50B6701882309F470C046E35DE0DE
:103AF000B701C8010E94A50B882309F467C042E8FA
:103B00005DE0B701C8010E94A50B882309F45EC0DF
:103B10001092D2018091660290E045E050E0B6013B
:103B200084599D4F0E94BF2721E02093CC01892B0F
:103B300009F03FC06996EFE00C94E22680E07FCF69
:103B40008091CF01882309F4B1CF8091CD0190916C
:103B5000CE010E949515059708F4A8CF45E050E0E6
:103B60006CE572E0C8010E94BF27892B41F085E017
:103B7000ECE5F2E0D80101900D928A95E1F7109200
:103B8000CF0194CF8091CA019091CB010E949515ED
:103B90008838934108F09DCF8091CC01882351F261
:103BA00085E0FE013196DF011D928A95E9F71092BA
:103BB000CC01A0916602B0E0A459BD4F85E0FE01A2
:103BC000319601900D928A95E1F7B4CF8091D201A0
:103BD0008F3F39F40E940F109093CB018093CA015C
:103BE000DBCF8F5F8093D2018A3008F493CFF2CF7E
:103BF00085E0F801A5E4B3E001900D928A95E1F724
:103C000085E493E00E944A0A80934403C0904A03EB
:103C1000D0904B03E0904C03F0904D038091C6018F
:103C20009091C701A091C801B091C901C816D906E9
:103C3000EA06FB06D1F0C092C601D092C701E0921D
:103C4000C801F092C9010E942E096E8B7F8B888F6C
:103C5000998FC61AD70AE80AF90AC092A402D0922C
:103C6000A502E092A602F092A7028BE0EEE4F3E058
:103C7000DE01119601900D928A95E1F780914E0335
:103C800086958695F0904F03E0905003D0905103B5
:103C9000009157031091580310925803112309F40F
:103CA00049CF10FF11C099819370282F220F220F46
:103CB000292B29839091EC0220FF1AC091609093E8
:103CC000EC0260E00E94421011FF06C020E04D2D82
:103CD0006E2D8F2D0E94040F12FF04C00023A9F047
:103CE0000E94261013FF26CF81E08093870222CF07
:103CF0009E7F9093EC020E94B2078091EB0281605C
:103D00008093EB020E944207DFCF0E94B207EACF06
:103D1000CDB7DEB72E970FB6F894DEBF0FBECDBF7E
:103D200085B7806885BF85B7806885BF84B7877F82
:103D300084BF0FB6F894A895809160008861809345
:103D40006000109260000FBE80E890E00FB6F8941B
:103D500080936100909361000FBE85E896E0909398
:103D6000BD018093BC010E942B0A0E949A0A809197
:103D7000E20084608093E200789480916B02882353
:103D800099F08091E9001091EC0017951127179593
:103D90008F70182B1092E9008091E80083FD0E943B
:103DA000E4121F701093E90082E084BD93E095BD9A
:103DB0009AEF97BD80936E001092A4021092A50214
:103DC0001092A6021092A7028091D8008061809381
:103DD000D8002AE12A95F1F700C08091D90080FF30
:103DE00006C281E08093A8028093A90280932201F9
:103DF0001092100186E0809311010E948A24809124
:103E00002201811124C085E0E5E5F1E0DE0119968B
:103E100001900D928A95E1F785E0FE013996ADE1BA
:103E2000B1E001900D928A95E1F788E0EBE5F1E0D1
:103E3000DE01119601900D928A95E1F788E0FE016E
:103E40003196A5E1B1E001900D928A95E1F780915C
:103E5000220190E0811101C095E09093670285E016
:103E6000891B809366020DE111E0A2E2EA2EA1E037
:103E7000FA2ED8018D918D018F3F11F00E94870697
:103E8000E016F106B1F705E111E0FDE1EF2EF1E0FA
:103E9000FF2EF80181918F018F3F11F00E9487065C
:103EA000E016F106B1F78AE0ECE6F2E0DF01282F38
:103EB0001D922A95E9F7ECE5F2E0DF011D928A9563
:103EC000E9F780E090E00E94E327863E9E4F09F4E8
:103ED00066C066EE7EEF80E090E00E94172860E00A
:103EE00082E090E00E94F92781E090E09093F80250
:103EF0008093F70261E083E090E00E94F92760E0A0
:103F000074E184E090E00E94172860E086E090E091
:103F10000E94F92760E087E090E00E94F92740E0E6
:103F200050E0BA0188E090E00E940B2860E084E253
:103F300090E00E94F92760E087E190E00E94F92775
:103F400060E08CE090E00E94F92760E08DE090E076
:103F50000E94F92719821A821B821C821D821E82EE
:103F60001F82188648E050E068E170E0CE010196BB
:103F70000E94E92740E050E0BA0180E290E00E9410
:103F80000B2840E050E0BA018FE090E00E940B283F
:103F900040E050E0BA0183E190E00E940B2882E00B
:103FA00090E00E94D5278093760284E090E00E9402
:103FB000E3279093FD028093FC0283E090E00E944F
:103FC000D52790E00E9415038091680281119CC062
:103FD00088E090E00E94DD276B017C0184E290E0A4
:103FE0000E94D527282F30E040E050E060E070E0EC
:103FF00080E090E000E20E942027F22FA32EB42E52
:10400000B52FA62FE72F9701860140E050E0BA01B7
:10401000FC29A12AB22AB32BA42BE52B862B972BA4
:10402000F093EC02A092ED02B092EE02B093EF0298
:10403000A093F002E093F1028093F2029093F302D6
:104040002091EB0223602093EB02F43008F04CC087
:1040500025E02093EC021092ED022FEF2093EE0268
:1040600028EC2093EF021092F00225E030E04FEFB1
:1040700058EC60E07E2F0E94AA0E88E090E00E943B
:10408000DD276B017C0184E290E00E94D527282F78
:1040900030E040E050E060E070E080E090E000E27E
:1040A0000E9420275901B42FA52FF62FE72F970143
:1040B000860140E050E0BA01AC28B12AB22BA32B14
:1040C000F42BE52B862B972BA092EC02B092ED02FD
:1040D000B093EE02A093EF02F093F002E093F102AE
:1040E0008093F2029093F3020E942D070E94B20780
:1040F0008091EC0280FF05C060E0869586950E9465
:10410000421081E0809368028091A802811103C06F
:1041100082E30E94FB2583E291E09093AD028093BD
:10412000AC02DD24D39477247394CE01019678E118
:10413000A72EB12CE0E46E2E8E87C92E80916B02E3
:10414000853049F480916B02853009F461C00E948A
:10415000A7120E94AB080E94C71C07E712E06CE69A
:10416000E62E62E0F62ED701F80191918D9122E0C2
:10417000E138F20709F49BC09817B9F32090A80220
:10418000912CD7018D907D01F80131908F01381469
:1041900039F13824512C44244394842D83218823DD
:1041A000B9F02220A9F059829A820E940F109C83B4
:1041B0008B837D8291E0842D8821811101C090E064
:1041C0009E8349815A816B817C818D810E941E1C56
:1041D0005394440CF8E05F12E0CFF80131978082ED
:1041E00093942AE09212CDCF0E944B0964C00E94A2
:1041F0002B0A10926B021092A8021092A902109240
:10420000220186E08093100188E080931101F7CDB0
:1042100080916B02843009F1109269020FB6F89414
:10422000A895A09260000FBE6092600083B7817F66
:10423000846083BF83B7816083BF7894889583B798
:104240008E7F83BF0FB6F894A89580916000886137
:1042500080936000109260000FBE80916A028823F4
:1042600009F470CF0E94C71CECE6F2E086E792E00A
:104270002191211104C08E179F07D1F763CF80E1F0
:1042800089BD82E189BD09B400FEFDCF8091D800CF
:104290008F7D8093D8008091E00082608093E00061
:1042A0008091E00081FDFCCF0E94A7124BCF9813B4
:1042B00065CF0E94A41C8091EA02882309F465C09E
:1042C0009091E902E091EC02E695E695E91BE09316
:1042D0008602923009F0C9C0F0E0E85FFB4FE4913C
:1042E0000E2F10E059EBE52E57E0F52E8091870256
:1042F000882361F0109287020E941B109093850220
:104300008093840210928902109288020E941B10EE
:104310009C018091840290918502A901481B590B50
:104320004F3F5F4790F5409183024423B1F01092D4
:1043300083024091810250918202241B350B2F3F52
:104340003F4758F4405D5A4850938202409381029F
:104350002091EB0228602093EB02809088029090DD
:104360008902800F911F909385028093840284E8D4
:1043700092E0F70109958091880290918902892B3A
:1043800021F4892811F0D092830286E0E1EEF2E078
:10439000AE85BC2D01900D928A95E1F7F090E20276
:1043A0000091E3021091E4029090E502E090E602B1
:1043B0001092E3021092E4021092E5021092E602DB
:1043C000812F802B882371F080918C0290918D0237
:1043D0000E9495159C018091DF02811183C0232BDF
:1043E00009F086C08E2D8929882371F080918A0278
:1043F00090918B020E9495159C018091DE028111A3
:10440000B0C0232B09F0B3C08091E202F81216C0AD
:104410008091E302882311F0801310C09091E40290
:10442000992311F019130AC02091E602211106C048
:104430002091E502211102C0892B81110E94BA103E
:1044400086E0EE85FC2DA1EEB2E001900D928A95FA
:10445000E1F70E94AB0890918E02891709F46ECEA5
:1044600080938E020E942E0969CE963059F4F0E0B6
:10447000EB5FFB4FE4910E2F10E042EAE42E47E0A1
:10448000F42E34CF993061F4E695F0E0EE5FFB4F07
:10449000E4910E2F10E03DECE32E37E0F32E26CF13
:1044A0009931C9F000ED17E080EAE82E86E0F82E99
:1044B0009A3109F01BCF8E2F63E00E94FA26E92F74
:1044C000F0E0E150FC4FE4910E2F10E02AEDE22ED7
:1044D0002DE0F22E0BCF04EF11E09BE0E92E98E0E7
:1044E000F92E04CF2531310508F47CCF8F3F19F028
:1044F0008F5F8093DF02002359F00E9461089FEFD5
:1045000010160CF491E0899F802D11248093E30212
:10451000112359F00E94610891E011160CF09FEFF1
:10452000899F802D11248093E4028091E3028823E7
:1045300009F458CF8090E402882009F453CF0E94F8
:104540005308811101C081E08093E302882D0E940D
:104550005308882319F08093E40244CFD092E402F8
:1045600041CF2135310508F44FCF8F3F19F08F5FD0
:104570008093DE02992059F00E9486089FEF19145B
:104580000CF491E0899F802D11248093E502EE20A8
:1045900059F00E94860891E01E140CF09FEF899F4D
:1045A000802D11248093E6028091E502882309F48E
:1045B0002BCFE090E602EE2009F426CF0E945308AC
:1045C000811101C081E08093E5028E2D0E94530885
:1045D000882319F08093E60217CFD092E60214CF19
:1045E00078941F921FB61F9211248F939F93AF93BD
:1045F000BF938091970290919802A0919902B091F7
:104600009A020196A11DB11D809397029093980282
:10461000A0939902B0939A02BF91AF919F918F910D
:104620001F901FBE1F9018951F920F920FB60F92EA
:1046300011242F933F934F935F936F937F938F93A7
:104640009F93AF93BF93EF93FF938091E10082FF1D
:1046500009C08091E20082FF05C08091E1008B7F5C
:104660008093E1008091DA0080FF24C08091D8001F
:1046700080FF20C08091DA008E7F8093DA008091E5
:10468000D90080FF9BC080E189BD82E189BD09B46A
:1046900000FEFDCF81E080936B028091D6018111F5
:1046A00009C00E942B0A0E949A0A8091E20084604D
:1046B0008093E2008091E10080FF17C08091E200CA
:1046C00080FF13C08091E2008E7F8093E200809192
:1046D000E20080618093E2008091D8008062809344
:1046E000D80019BC85E080936B028091E10084FFC3
:1046F00029C08091E20084FF25C080E189BD82E16C
:1047000089BD09B400FEFDCF8091D8008F7D8093D4
:10471000D8008091E1008F7E8093E1008091E200DB
:104720008F7E8093E2008091E20081608093E200BE
:104730008091D501882309F447C084E080936B02FF
:1047400080916B028091E10083FF27C08091E2009D
:1047500083FF23C08091E100877F8093E10082E0A6
:1047600080936B021092D5018091E1008E7F80933F
:10477000E1008091E2008E7F8093E2008091E20070
:1047800080618093E20042E060E080E00E94630A82
:104790008091F00088608093F000FF91EF91BF91CD
:1047A000AF919F918F917F916F915F914F913F91C9
:1047B0002F910F900FBE0F901F90189519BC10925B
:1047C0006B021092D60176CF8091E30087FF02C082
:1047D00083E0B4CF81E0B2CF1F920F920FB60F9259
:1047E0001124FF920F931F932F933F934F935F9347
:1047F0006F937F938F939F93AF93BF93CF93DF93E9
:10480000EF93FF9309EE10E0F8018081C091EC0076
:10481000C795CC27C7958F70FC2EF82A1082C0EF61
:10482000D0E08881877F888378940E94E412F80121
:104830001082888188608883CF2DCF70C083FF91DC
:10484000EF91DF91CF91BF91AF919F918F917F9128
:104850006F915F914F913F912F911F910F91FF9019
:104860000F900FBE0F901F901895FF920F931F93FC
:10487000CF93DF93182FEB011092BC0084EA809352
:10488000BC000E940F10082FF92E8091BC0087FFFA
:1048900028C08091B900887F883029F08091B900C4
:1048A000887F8031A1F51093BB0084E88093BC0021
:1048B0000E940F10182F092F8091BC0087FF1FC086
:1048C0002091B900287F80E090E0283199F081E0C4
:1048D00090E0203411F480E090E091958195910969
:1048E00009C0802F9F2D0E949515C817D90768F61B
:1048F0008EEF9FEFCDB7DEB7E5E00C94EC26812F6D
:10490000902F0E949515C817D907B0F6F1CF8FEFF9
:104910009FEFF0CF1092B90088E48093B80008951B
:104920000F931F93CF93DF93EB018093BB0084E839
:104930008093BC000E940F10182F092F8091BC009B
:1049400087FF11C02091B900287F81E090E02832D4
:1049500011F480E090E0919581959109DF91CF91DC
:104960001F910F910895CF3FDC0741F3812F902FC6
:104970000E949515C817D90708F78EEF9FEFEECF65
:104980000F931F93CF93DF93EC0184EC8093BC00D3
:104990000E940F10182F092F8091BC0087FF08C0BC
:1049A0008091BB0090E0DF91CF911F910F9108950E
:1049B000CF3FDC0789F3812F902F0E949515C817F0
:1049C000D90750F78EEF9FEFEECF0F931F93CF9342
:1049D000DF93EC0184E88093BC000E940F10182F35
:1049E000092F8091BC0087FF08C08091BB0090E038
:1049F000DF91CF911F910F910895CF3FDC0789F38D
:104A0000812F902F0E949515C817D90750F78EEF68
:104A10009FEFEECFA0E0B0E0E0E1F5E20C94C72616
:104A2000682E962E5A01690178010E940F10782E87
:104A3000892E0431110530F10F3F100731F1C80103
:104A400064E170E00E94AF26162F072F612F702FB0
:104A5000862D0E943524EC0197FF19C0FFEFEF1659
:104A6000FF06A1F3872D982D0E949515E816F906EB
:104A700068F784E98093BC00CE01CDB7DEB7EEE0E5
:104A80000C94E32611E000E0E1CF15E0FCCFB70184
:104A9000892D0E949024EC018501CA0CDB1C0C15A9
:104AA0001D0539F3D7FDE5CFB701F80181918F01DD
:104AB0000E949024EC01F3CFA0E0B0E0E2E6F5E242
:104AC0000C94C726982E862E5A01690178010E94FF
:104AD0000F103C010431110550F10F3F100751F147
:104AE000C80164E170E00E94AF26162F072F612FE6
:104AF000702F892D0E943524EC0197FF1DC0FFEF18
:104B0000EF16FF06A1F3C3010E949515E816F906FA
:104B100070F784E98093BC00CE011C161D0614F4C6
:104B200080E090E0CDB7DEB7EEE00C94E32611E034
:104B300000E0DDCF15E0FCCFB701882D0E94902466
:104B4000EC0197FDE6CF689490F80E940F10782E44
:104B5000892E84E1E816F10490F1EFEFEE16FE06DF
:104B600089F1C70164E170E00E94AF26162F072F7C
:104B7000612F702F892D0E943524EC0197FF0BC007
:104B8000FFEFEF16FF06A1F3872D982D0E949515D4
:104B9000E816F90668F781E0C81AD1088601C11441
:104BA000D10491F4D7FDB5CFC7010E94E524EC01F3
:104BB00097FDAFCFAC0CBD1CF5018083AACF11E0EF
:104BC00000E0D6CF15E0FCCFD7FDA3CF812C912CF0
:104BD0003801C7010E94C024EC0197FD9ACFF5016E
:104BE000E80DF91D8083EFEF8E1A9E0A630180168F
:104BF000910678F3D7CF8093BA0085EC8093BC0000
:104C000008951F920F920FB60F9211242F933F9386
:104C10004F935F936F937F938F939F93AF93BF93C4
:104C2000CF93DF93EF93FF938091B900982F987FF4
:104C30009038F1F038F4992309F48EC0903699F049
:104C400021E037C0887E883AD9F7E0914103F0E04F
:104C5000ED5BFC4F80818093BB00809141038F5FAF
:104C600080934103EDCF1092400310924203E8CFAE
:104C70008091400381113AC08091BB008093410331
:104C80008091410321E0863118F01092410320E029
:104C900081E0809340038091410390E031E04091B6
:104CA0002E0150912F014817590709F030E0309339
:104CB00042038091BC0090E4299F90011124822B33
:104CC00085688093BC00FF91EF91DF91CF91BF91F8
:104CD000AF919F918F917F916F915F914F913F9194
:104CE0002F910F900FBE0F901F901895E0914103E8
:104CF000F0E08091BB00ED5BFC4F8083809141032D
:104D00008F5F8093410380914203882309F498CFF9
:104D1000C0918401D0918501A88188E0A802D001CA
:104D20001124A35DBE4F1696ED91FC911797309715
:104D300009F486CF14962D913C9115972C0F3D1FA9
:104D400011966D917C9112976C0F7D1F13964C916B
:104D500013978C91099574CF1092BC0071CFAA1B48
:104D6000BB1B51E107C0AA1FBB1FA617B70710F056
:104D7000A61BB70B881F991F5A95A9F78095909588
:104D8000BC01CD0108952F923F924F925F926F9296
:104D90007F928F929F92AF92BF92CF92DF92EF92CB
:104DA000FF920F931F93CF93DF93CDB7DEB7CA1B4C
:104DB000DB0B0FB6F894DEBF0FBECDBF09942A8877
:104DC000398848885F846E847D848C849B84AA841F
:104DD000B984C884DF80EE80FD800C811B81AA81AC
:104DE000B981CE0FD11D0FB6F894DEBF0FBECDBF77
:104DF000ED010895991B79E004C0991F961708F0FA
:104E0000961B881F7A95C9F78095089597FB072E02
:104E100016F4009407D077FD09D00E94AF2607FC56
:104E200005D03EF4909581959F4F089570956195BA
:104E30007F4F0895EE0FFF1F0590F491E02D099428
:104E4000002E083090F0982F872F762F652F542F43
:104E5000432F322F22270850F4CF220F331F441F35
:104E6000551F661F771F881F991F0A95B2F7002DDF
:104E7000089597FD1094002E083098F00850232FC5
:104E8000342F452F562F672F782F892F912DF4CF50
:104E90001594979587957795679557954795379585
:104EA00027950A95AAF71124002D08958F929F92B5
:104EB000AF92BF92CF92DF92EF92FF92CF93DF93A8
:104EC000EC01688179818A819B8161157105810579
:104ED000910521F464E279ED8BE597E02DE133EF64
:104EE00041E050E00E942D2849015A019B01AC018C
:104EF000A7EAB1E40E944C286B017C01ACEEB4EF50
:104F0000A50194010E945A28DC01CB018C0D9D1D46
:104F1000AE1DBF1DB7FF03C00197A109B04888832C
:104F20009983AA83BB839F77DF91CF91FF90EF9006
:104F3000DF90CF90BF90AF909F908F9008950E9488
:104F40005627089580E091E00E9456270895B0E02A
:104F5000A0E08093000190930101A0930201B0931F
:104F600003010895FC014150504030F001900616B5
:104F7000D1F73197CF010895882799270895FB012C
:104F8000DC0104C08D910190801921F44150504002
:104F9000C8F7881B990B0895FB01DC0102C0019042
:104FA0000D9241505040D8F70895F999FECF92BD27
:104FB00081BDF89A992780B50895A6E1B0E044E054
:104FC00050E00C941F28A8E1B0E042E050E00C94BF
:104FD0001F28DC01A40FB51F4150504048F0CB0101
:104FE000840F951F2E910E94FA2741505040D0F710
:104FF0000895262FF999FECF92BD81BDF89A0197A9
:1050000000B4021639F01FBA20BD0FB6F894FA9A10
:10501000F99A0FBE08950396272F0E94FA270E943F
:10502000F927252F0E94FA27242F0C94FA2701969E
:10503000272F0E94FA270C94F927DC01CB01FC01F1
:10504000F999FECF06C0F2BDE1BDF89A319600B4E1
:105050000D9241505040B8F70895052E97FB1EF46D
:1050600000940E94442857FD07D00E945F2807FC47
:1050700003D04EF40C9444285095409530952195DA
:105080003F4F4F4F5F4F0895909580957095619574
:105090007F4F8F4F9F4F08950E948128A59F900DAD
:1050A000B49F900DA49F800D911D11240895B7FF0A
:1050B0000C944C280E944C28821B930B0895A1E26B
:1050C0001A2EAA1BBB1BFD010DC0AA1FBB1FEE1F82
:1050D000FF1FA217B307E407F50720F0A21BB30BCD
:1050E000E40BF50B661F771F881F991F1A9469F749
:1050F00060957095809590959B01AC01BD01CF01A5
:105100000895A29FB001B39FC001A39F700D811DA0
:105110001124911DB29F700D811D1124911D0895C0
:10512000F894FFCF0B110E11141129112911291117
:105130002911291129112911291117111C112011C7
:10514000261137113D114111C113E713ED13E71378
:10515000ED1340146214ED1360156D153F164316E0
:1051600021163B1647164B164F16BE162917C616A4
:1051700090169416CA169816CE16DA16A41622178A
:10518000A816DE16AC16E2160A17B016E6161117A8
:10519000B616EC16F4169C16D216A016D616BA162B
:1051A000F01600171A1720178A16C21630175F1745
:1051B0008A17911796179B17A017A517AA17AF174D
:1051C000B417B917BE17C117C617C9172616261662
:1051D0002616CC172616CF1774187418AE18AE18EA
:1051E00047196419DA18DA186919F519061A061A2E
:1051F0000100000001010F101112131415161718E9
:10520000000E000E0EF4F5F6F73133323694669741
:10521000C634017E09800B8109970B9E0B010000AB
:10522000000000000000000001010000000000007C
:10523000050200000004070000000000000B0B0046
:105240000000000000946697C63400F4F5F6F731CC
:10525000333236000001020202020606060909097D
:105260000909090F0F0F0F0F0F0F0F0F0F191A1A40
:105270001A1A1A1A4303E200E900EA00B500B60060
:10528000B700CD008301CC008A0192019401210274
:10529000230224022502260227022A02B300B400B8
:0C52A0006F0070009F01CB019F02A00274
:00000001FF
